{
  "contractName": "VotingSystem",
  "abi": [
    {
      "inputs": [],
      "stateMutability": "nonpayable",
      "type": "constructor"
    },
    {
      "anonymous": false,
      "inputs": [
        {
          "indexed": false,
          "internalType": "uint256",
          "name": "proposalId",
          "type": "uint256"
        },
        {
          "indexed": false,
          "internalType": "string",
          "name": "description",
          "type": "string"
        }
      ],
      "name": "ProposalCreated",
      "type": "event"
    },
    {
      "anonymous": false,
      "inputs": [
        {
          "indexed": false,
          "internalType": "address",
          "name": "voter",
          "type": "address"
        },
        {
          "indexed": false,
          "internalType": "uint256",
          "name": "proposalId",
          "type": "uint256"
        }
      ],
      "name": "VoteCasted",
      "type": "event"
    },
    {
      "anonymous": false,
      "inputs": [
        {
          "indexed": false,
          "internalType": "address",
          "name": "voterAddress",
          "type": "address"
        }
      ],
      "name": "VoterRegistered",
      "type": "event"
    },
    {
      "inputs": [],
      "name": "admin",
      "outputs": [
        {
          "internalType": "address",
          "name": "",
          "type": "address"
        }
      ],
      "stateMutability": "view",
      "type": "function",
      "constant": true
    },
    {
      "inputs": [
        {
          "internalType": "uint256",
          "name": "",
          "type": "uint256"
        }
      ],
      "name": "proposals",
      "outputs": [
        {
          "internalType": "uint256",
          "name": "id",
          "type": "uint256"
        },
        {
          "internalType": "string",
          "name": "description",
          "type": "string"
        },
        {
          "internalType": "uint256",
          "name": "voteCount",
          "type": "uint256"
        }
      ],
      "stateMutability": "view",
      "type": "function",
      "constant": true
    },
    {
      "inputs": [],
      "name": "proposalsCount",
      "outputs": [
        {
          "internalType": "uint256",
          "name": "",
          "type": "uint256"
        }
      ],
      "stateMutability": "view",
      "type": "function",
      "constant": true
    },
    {
      "inputs": [
        {
          "internalType": "address",
          "name": "",
          "type": "address"
        }
      ],
      "name": "voters",
      "outputs": [
        {
          "internalType": "bool",
          "name": "isRegistered",
          "type": "bool"
        },
        {
          "internalType": "bool",
          "name": "hasVoted",
          "type": "bool"
        },
        {
          "internalType": "uint256",
          "name": "voteIndex",
          "type": "uint256"
        }
      ],
      "stateMutability": "view",
      "type": "function",
      "constant": true
    },
    {
      "inputs": [
        {
          "internalType": "address",
          "name": "_voterAddress",
          "type": "address"
        }
      ],
      "name": "registerVoter",
      "outputs": [],
      "stateMutability": "nonpayable",
      "type": "function"
    },
    {
      "inputs": [
        {
          "internalType": "string",
          "name": "_description",
          "type": "string"
        }
      ],
      "name": "createProposal",
      "outputs": [],
      "stateMutability": "nonpayable",
      "type": "function"
    },
    {
      "inputs": [
        {
          "internalType": "uint256",
          "name": "_proposalId",
          "type": "uint256"
        }
      ],
      "name": "vote",
      "outputs": [],
      "stateMutability": "nonpayable",
      "type": "function"
    },
    {
      "inputs": [],
      "name": "getResults",
      "outputs": [
        {
          "components": [
            {
              "internalType": "uint256",
              "name": "id",
              "type": "uint256"
            },
            {
              "internalType": "string",
              "name": "description",
              "type": "string"
            },
            {
              "internalType": "uint256",
              "name": "voteCount",
              "type": "uint256"
            }
          ],
          "internalType": "struct VotingSystem.Proposal[]",
          "name": "",
          "type": "tuple[]"
        }
      ],
      "stateMutability": "view",
      "type": "function",
      "constant": true
    }
  ],
  "bytecode": "0x608060405234801561001057600080fd5b50336000806101000a81548173ffffffffffffffffffffffffffffffffffffffff021916908373ffffffffffffffffffffffffffffffffffffffff16021790555061151c806100606000396000f3fe608060405234801561001057600080fd5b50600436106100885760003560e01c80634717f97c1161005b5780634717f97c1461011557806349c2a1a614610133578063a3ec138d1461014f578063f851a4401461018157610088565b80630121b93f1461008d578063013cf08b146100a95780630a9f46ad146100db57806338db6dd3146100f9575b600080fd5b6100a760048036038101906100a2919061095c565b61019f565b005b6100c360048036038101906100be919061095c565b610365565b6040516100d293929190610a28565b60405180910390f35b6100e3610417565b6040516100f09190610a66565b60405180910390f35b610113600480360381019061010e9190610adf565b61041d565b005b61011d6105d0565b60405161012a9190610c77565b60405180910390f35b61014d60048036038101906101489190610dce565b610745565b005b61016960048036038101906101649190610adf565b610889565b60405161017893929190610e32565b60405180910390f35b6101896108cd565b6040516101969190610e78565b60405180910390f35b6000600260003373ffffffffffffffffffffffffffffffffffffffff1673ffffffffffffffffffffffffffffffffffffffff16815260200190815260200160002090508060000160009054906101000a900460ff16610233576040517f08c379a000000000000000000000000000000000000000000000000000000000815260040161022a90610edf565b60405180910390fd5b8060000160019054906101000a900460ff1615610285576040517f08c379a000000000000000000000000000000000000000000000000000000000815260040161027c90610f4b565b60405180910390fd5b60008211801561029757506001548211155b6102d6576040517f08c379a00000000000000000000000000000000000000000000000000000000081526004016102cd90610fb7565b60405180910390fd5b60018160000160016101000a81548160ff02191690831515021790555081816001018190555060036000838152602001908152602001600020600201600081548092919061032390611006565b91905055507fd0e6c39f2e086dc49f1524b47725526a56945cd1ff661f37976f1725a1e56986338360405161035992919061104e565b60405180910390a15050565b600360205280600052604060002060009150905080600001549080600101805461038e906110a6565b80601f01602080910402602001604051908101604052809291908181526020018280546103ba906110a6565b80156104075780601f106103dc57610100808354040283529160200191610407565b820191906000526020600020905b8154815290600101906020018083116103ea57829003601f168201915b5050505050908060020154905083565b60015481565b60008054906101000a900473ffffffffffffffffffffffffffffffffffffffff1673ffffffffffffffffffffffffffffffffffffffff163373ffffffffffffffffffffffffffffffffffffffff16146104ab576040517f08c379a00000000000000000000000000000000000000000000000000000000081526004016104a290611149565b60405180910390fd5b600260008273ffffffffffffffffffffffffffffffffffffffff1673ffffffffffffffffffffffffffffffffffffffff16815260200190815260200160002060000160009054906101000a900460ff161561053b576040517f08c379a0000000000000000000000000000000000000000000000000000000008152600401610532906111b5565b60405180910390fd5b6001600260008373ffffffffffffffffffffffffffffffffffffffff1673ffffffffffffffffffffffffffffffffffffffff16815260200190815260200160002060000160006101000a81548160ff0219169083151502179055507fb6be2187d059cc2a55fe29e0e503b566e1e0f8c8780096e185429350acffd3dd816040516105c59190610e78565b60405180910390a150565b6060600060015467ffffffffffffffff8111156105f0576105ef610ca3565b5b60405190808252806020026020018201604052801561062957816020015b6106166108f1565b81526020019060019003908161060e5790505b5090506000600190505b600154811161073d576003600082815260200190815260200160002060405180606001604052908160008201548152602001600182018054610674906110a6565b80601f01602080910402602001604051908101604052809291908181526020018280546106a0906110a6565b80156106ed5780601f106106c2576101008083540402835291602001916106ed565b820191906000526020600020905b8154815290600101906020018083116106d057829003601f168201915b505050505081526020016002820154815250508260018361070e91906111d5565b8151811061071f5761071e611209565b5b6020026020010181905250808061073590611006565b915050610633565b508091505090565b60008054906101000a900473ffffffffffffffffffffffffffffffffffffffff1673ffffffffffffffffffffffffffffffffffffffff163373ffffffffffffffffffffffffffffffffffffffff16146107d3576040517f08c379a00000000000000000000000000000000000000000000000000000000081526004016107ca90611149565b60405180910390fd5b600160008154809291906107e690611006565b919050555060405180606001604052806001548152602001828152602001600081525060036000600154815260200190815260200160002060008201518160000155602082015181600101908161083d91906113e4565b50604082015181600201559050507f9c770c289ab5bf7e57cb1d23c8ceae993aea46eb64847072fd3d78ca60d3e4326001548260405161087e9291906114b6565b60405180910390a150565b60026020528060005260406000206000915090508060000160009054906101000a900460ff16908060000160019054906101000a900460ff16908060010154905083565b60008054906101000a900473ffffffffffffffffffffffffffffffffffffffff1681565b60405180606001604052806000815260200160608152602001600081525090565b6000604051905090565b600080fd5b600080fd5b6000819050919050565b61093981610926565b811461094457600080fd5b50565b60008135905061095681610930565b92915050565b6000602082840312156109725761097161091c565b5b600061098084828501610947565b91505092915050565b61099281610926565b82525050565b600081519050919050565b600082825260208201905092915050565b60005b838110156109d25780820151818401526020810190506109b7565b60008484015250505050565b6000601f19601f8301169050919050565b60006109fa82610998565b610a0481856109a3565b9350610a148185602086016109b4565b610a1d816109de565b840191505092915050565b6000606082019050610a3d6000830186610989565b8181036020830152610a4f81856109ef565b9050610a5e6040830184610989565b949350505050565b6000602082019050610a7b6000830184610989565b92915050565b600073ffffffffffffffffffffffffffffffffffffffff82169050919050565b6000610aac82610a81565b9050919050565b610abc81610aa1565b8114610ac757600080fd5b50565b600081359050610ad981610ab3565b92915050565b600060208284031215610af557610af461091c565b5b6000610b0384828501610aca565b91505092915050565b600081519050919050565b600082825260208201905092915050565b6000819050602082019050919050565b610b4181610926565b82525050565b600082825260208201905092915050565b6000610b6382610998565b610b6d8185610b47565b9350610b7d8185602086016109b4565b610b86816109de565b840191505092915050565b6000606083016000830151610ba96000860182610b38565b5060208301518482036020860152610bc18282610b58565b9150506040830151610bd66040860182610b38565b508091505092915050565b6000610bed8383610b91565b905092915050565b6000602082019050919050565b6000610c0d82610b0c565b610c178185610b17565b935083602082028501610c2985610b28565b8060005b85811015610c655784840389528151610c468582610be1565b9450610c5183610bf5565b925060208a01995050600181019050610c2d565b50829750879550505050505092915050565b60006020820190508181036000830152610c918184610c02565b905092915050565b600080fd5b600080fd5b7f4e487b7100000000000000000000000000000000000000000000000000000000600052604160045260246000fd5b610cdb826109de565b810181811067ffffffffffffffff82111715610cfa57610cf9610ca3565b5b80604052505050565b6000610d0d610912565b9050610d198282610cd2565b919050565b600067ffffffffffffffff821115610d3957610d38610ca3565b5b610d42826109de565b9050602081019050919050565b82818337600083830152505050565b6000610d71610d6c84610d1e565b610d03565b905082815260208101848484011115610d8d57610d8c610c9e565b5b610d98848285610d4f565b509392505050565b600082601f830112610db557610db4610c99565b5b8135610dc5848260208601610d5e565b91505092915050565b600060208284031215610de457610de361091c565b5b600082013567ffffffffffffffff811115610e0257610e01610921565b5b610e0e84828501610da0565b91505092915050565b60008115159050919050565b610e2c81610e17565b82525050565b6000606082019050610e476000830186610e23565b610e546020830185610e23565b610e616040830184610989565b949350505050565b610e7281610aa1565b82525050565b6000602082019050610e8d6000830184610e69565b92915050565b7f566f746572206973206e6f742072656769737465726564000000000000000000600082015250565b6000610ec96017836109a3565b9150610ed482610e93565b602082019050919050565b60006020820190508181036000830152610ef881610ebc565b9050919050565b7f566f7465722068617320616c726561647920766f746564000000000000000000600082015250565b6000610f356017836109a3565b9150610f4082610eff565b602082019050919050565b60006020820190508181036000830152610f6481610f28565b9050919050565b7f496e76616c69642070726f706f73616c20494400000000000000000000000000600082015250565b6000610fa16013836109a3565b9150610fac82610f6b565b602082019050919050565b60006020820190508181036000830152610fd081610f94565b9050919050565b7f4e487b7100000000000000000000000000000000000000000000000000000000600052601160045260246000fd5b600061101182610926565b91507fffffffffffffffffffffffffffffffffffffffffffffffffffffffffffffffff820361104357611042610fd7565b5b600182019050919050565b60006040820190506110636000830185610e69565b6110706020830184610989565b9392505050565b7f4e487b7100000000000000000000000000000000000000000000000000000000600052602260045260246000fd5b600060028204905060018216806110be57607f821691505b6020821081036110d1576110d0611077565b5b50919050565b7f4f6e6c792061646d696e2063616e20706572666f726d2074686973206163746960008201527f6f6e000000000000000000000000000000000000000000000000000000000000602082015250565b60006111336022836109a3565b915061113e826110d7565b604082019050919050565b6000602082019050818103600083015261116281611126565b9050919050565b7f566f74657220697320616c726561647920726567697374657265640000000000600082015250565b600061119f601b836109a3565b91506111aa82611169565b602082019050919050565b600060208201905081810360008301526111ce81611192565b9050919050565b60006111e082610926565b91506111eb83610926565b925082820390508181111561120357611202610fd7565b5b92915050565b7f4e487b7100000000000000000000000000000000000000000000000000000000600052603260045260246000fd5b60008190508160005260206000209050919050565b60006020601f8301049050919050565b600082821b905092915050565b60006008830261129a7fffffffffffffffffffffffffffffffffffffffffffffffffffffffffffffffff8261125d565b6112a4868361125d565b95508019841693508086168417925050509392505050565b6000819050919050565b60006112e16112dc6112d784610926565b6112bc565b610926565b9050919050565b6000819050919050565b6112fb836112c6565b61130f611307826112e8565b84845461126a565b825550505050565b600090565b611324611317565b61132f8184846112f2565b505050565b5b818110156113535761134860008261131c565b600181019050611335565b5050565b601f8211156113985761136981611238565b6113728461124d565b81016020851015611381578190505b61139561138d8561124d565b830182611334565b50505b505050565b600082821c905092915050565b60006113bb6000198460080261139d565b1980831691505092915050565b60006113d483836113aa565b9150826002028217905092915050565b6113ed82610998565b67ffffffffffffffff81111561140657611405610ca3565b5b61141082546110a6565b61141b828285611357565b600060209050601f83116001811461144e576000841561143c578287015190505b61144685826113c8565b8655506114ae565b601f19841661145c86611238565b60005b828110156114845784890151825560018201915060208501945060208101905061145f565b868310156114a1578489015161149d601f8916826113aa565b8355505b6001600288020188555050505b505050505050565b60006040820190506114cb6000830185610989565b81810360208301526114dd81846109ef565b9050939250505056fea26469706673582212200d373193b63741a11f62fcd2af3b4d7c48c788a94a9f6ed666beaa349b0bc65b64736f6c63430008130033",
  "immutableReferences": {},
  "source": "pragma solidity ^0.8.0;\n\ncontract VotingSystem {\n    // State variables\n    address public admin;\n    uint256 public proposalsCount;\n\n    struct Voter {\n        bool isRegistered;\n        bool hasVoted;\n        uint256 voteIndex;\n    }\n\n    struct Proposal {\n        uint256 id;\n        string description;\n        uint256 voteCount;\n    }\n\n    mapping(address => Voter) public voters;\n    mapping(uint256 => Proposal) public proposals;\n\n    // Events\n    event VoterRegistered(address voterAddress);\n    event ProposalCreated(uint256 proposalId, string description);\n    event VoteCasted(address voter, uint256 proposalId);\n\n    // Constructor\n    constructor() {\n        admin = msg.sender;\n    }\n\n    // Modifier\n    modifier onlyAdmin() {\n        require(msg.sender == admin, \"Only admin can perform this action\");\n        _;\n    }\n\n    // Functions\n    function registerVoter(address _voterAddress) public onlyAdmin {\n        require(!voters[_voterAddress].isRegistered, \"Voter is already registered\");\n\n        voters[_voterAddress].isRegistered = true;\n\n        emit VoterRegistered(_voterAddress);\n    }\n\n    function createProposal(string memory _description) public onlyAdmin {\n        proposalsCount++;\n        proposals[proposalsCount] = Proposal(proposalsCount, _description, 0);\n\n        emit ProposalCreated(proposalsCount, _description);\n    }\n\n    function vote(uint256 _proposalId) public {\n        Voter storage voter = voters[msg.sender];\n\n        require(voter.isRegistered, \"Voter is not registered\");\n        require(!voter.hasVoted, \"Voter has already voted\");\n        require(_proposalId > 0 && _proposalId <= proposalsCount, \"Invalid proposal ID\");\n\n        voter.hasVoted = true;\n        voter.voteIndex = _proposalId;\n\n        proposals[_proposalId].voteCount++;\n\n        emit VoteCasted(msg.sender, _proposalId);\n    }\n\n    function getResults() public view returns (Proposal[] memory) {\n        Proposal[] memory results = new Proposal[](proposalsCount);\n\n        for (uint256 i = 1; i <= proposalsCount; i++) {\n            results[i - 1] = proposals[i];\n        }\n\n        return results;\n    }\n}\n",
  "sourcePath": "/Users/abiks/Desktop/evoting_dapp_blockchain/contracts/VotingSystem.sol",
  "compiler": {
    "name": "solc",
    "version": "0.8.19+commit.7dd6d404.Emscripten.clang"
  },
  "schemaVersion": "3.4.13",
  "updatedAt": "2023-04-30T18:22:30.183Z",
  "networkType": "ethereum",
  "devdoc": {
    "kind": "dev",
    "methods": {},
    "version": 1
  },
  "userdoc": {
    "kind": "user",
    "methods": {},
    "version": 1
  }
}