{
  "contractName": "VotingSystem",
  "abi": [
    {
      "inputs": [],
      "stateMutability": "nonpayable",
      "type": "constructor"
    },
    {
      "anonymous": false,
      "inputs": [
        {
          "indexed": false,
          "internalType": "uint256",
          "name": "proposalId",
          "type": "uint256"
        },
        {
          "indexed": false,
          "internalType": "string",
          "name": "description",
          "type": "string"
        }
      ],
      "name": "ProposalCreated",
      "type": "event"
    },
    {
      "anonymous": false,
      "inputs": [
        {
          "indexed": false,
          "internalType": "uint256",
          "name": "proposalId",
          "type": "uint256"
        }
      ],
      "name": "ProposalDeleted",
      "type": "event"
    },
    {
      "anonymous": false,
      "inputs": [
        {
          "indexed": false,
          "internalType": "address",
          "name": "voter",
          "type": "address"
        },
        {
          "indexed": false,
          "internalType": "uint256",
          "name": "proposalId",
          "type": "uint256"
        }
      ],
      "name": "VoteCasted",
      "type": "event"
    },
    {
      "anonymous": false,
      "inputs": [
        {
          "indexed": false,
          "internalType": "address",
          "name": "voter",
          "type": "address"
        }
      ],
      "name": "VoteCommitted",
      "type": "event"
    },
    {
      "anonymous": false,
      "inputs": [
        {
          "indexed": false,
          "internalType": "address",
          "name": "voter",
          "type": "address"
        },
        {
          "indexed": false,
          "internalType": "uint256",
          "name": "proposalId",
          "type": "uint256"
        }
      ],
      "name": "VoteRevealed",
      "type": "event"
    },
    {
      "anonymous": false,
      "inputs": [
        {
          "indexed": false,
          "internalType": "address",
          "name": "voterAddress",
          "type": "address"
        }
      ],
      "name": "VoterRegistered",
      "type": "event"
    },
    {
      "anonymous": false,
      "inputs": [
        {
          "indexed": false,
          "internalType": "uint256",
          "name": "winningProposalId",
          "type": "uint256"
        },
        {
          "indexed": false,
          "internalType": "uint256",
          "name": "winningVoteCount",
          "type": "uint256"
        }
      ],
      "name": "VotingEnded",
      "type": "event"
    },
    {
      "inputs": [],
      "name": "admin",
      "outputs": [
        {
          "internalType": "address",
          "name": "",
          "type": "address"
        }
      ],
      "stateMutability": "view",
      "type": "function",
      "constant": true
    },
    {
      "inputs": [],
      "name": "currentPhase",
      "outputs": [
        {
          "internalType": "enum VotingSystem.VotingPhase",
          "name": "",
          "type": "uint8"
        }
      ],
      "stateMutability": "view",
      "type": "function",
      "constant": true
    },
    {
      "inputs": [],
      "name": "maxVoters",
      "outputs": [
        {
          "internalType": "uint256",
          "name": "",
          "type": "uint256"
        }
      ],
      "stateMutability": "view",
      "type": "function",
      "constant": true
    },
    {
      "inputs": [
        {
          "internalType": "uint256",
          "name": "",
          "type": "uint256"
        }
      ],
      "name": "proposals",
      "outputs": [
        {
          "internalType": "uint256",
          "name": "id",
          "type": "uint256"
        },
        {
          "internalType": "string",
          "name": "description",
          "type": "string"
        },
        {
          "internalType": "uint256",
          "name": "voteCount",
          "type": "uint256"
        }
      ],
      "stateMutability": "view",
      "type": "function",
      "constant": true
    },
    {
      "inputs": [],
      "name": "proposalsCount",
      "outputs": [
        {
          "internalType": "uint256",
          "name": "",
          "type": "uint256"
        }
      ],
      "stateMutability": "view",
      "type": "function",
      "constant": true
    },
    {
      "inputs": [],
      "name": "resultDelay",
      "outputs": [
        {
          "internalType": "uint256",
          "name": "",
          "type": "uint256"
        }
      ],
      "stateMutability": "view",
      "type": "function",
      "constant": true
    },
    {
      "inputs": [],
      "name": "resultTime",
      "outputs": [
        {
          "internalType": "uint256",
          "name": "",
          "type": "uint256"
        }
      ],
      "stateMutability": "view",
      "type": "function",
      "constant": true
    },
    {
      "inputs": [
        {
          "internalType": "uint256",
          "name": "",
          "type": "uint256"
        }
      ],
      "name": "voterAddresses",
      "outputs": [
        {
          "internalType": "address",
          "name": "",
          "type": "address"
        }
      ],
      "stateMutability": "view",
      "type": "function",
      "constant": true
    },
    {
      "inputs": [],
      "name": "voterCount",
      "outputs": [
        {
          "internalType": "uint256",
          "name": "",
          "type": "uint256"
        }
      ],
      "stateMutability": "view",
      "type": "function",
      "constant": true
    },
    {
      "inputs": [
        {
          "internalType": "address",
          "name": "",
          "type": "address"
        }
      ],
      "name": "voters",
      "outputs": [
        {
          "internalType": "bool",
          "name": "isRegistered",
          "type": "bool"
        },
        {
          "internalType": "bool",
          "name": "hasVoted",
          "type": "bool"
        },
        {
          "internalType": "uint256",
          "name": "voteIndex",
          "type": "uint256"
        },
        {
          "internalType": "bytes32",
          "name": "voteCommit",
          "type": "bytes32"
        }
      ],
      "stateMutability": "view",
      "type": "function",
      "constant": true
    },
    {
      "inputs": [],
      "name": "winningProposal",
      "outputs": [
        {
          "internalType": "uint256",
          "name": "",
          "type": "uint256"
        }
      ],
      "stateMutability": "view",
      "type": "function",
      "constant": true
    },
    {
      "inputs": [
        {
          "internalType": "address",
          "name": "_voterAddress",
          "type": "address"
        }
      ],
      "name": "registerVoter",
      "outputs": [],
      "stateMutability": "nonpayable",
      "type": "function"
    },
    {
      "inputs": [],
      "name": "getWinningProposal",
      "outputs": [
        {
          "components": [
            {
              "internalType": "uint256",
              "name": "id",
              "type": "uint256"
            },
            {
              "internalType": "string",
              "name": "description",
              "type": "string"
            },
            {
              "internalType": "uint256",
              "name": "voteCount",
              "type": "uint256"
            }
          ],
          "internalType": "struct VotingSystem.Proposal",
          "name": "",
          "type": "tuple"
        }
      ],
      "stateMutability": "view",
      "type": "function",
      "constant": true
    },
    {
      "inputs": [
        {
          "internalType": "string",
          "name": "_description",
          "type": "string"
        }
      ],
      "name": "createProposal",
      "outputs": [],
      "stateMutability": "nonpayable",
      "type": "function"
    },
    {
      "inputs": [
        {
          "internalType": "bytes32",
          "name": "_voteCommit",
          "type": "bytes32"
        }
      ],
      "name": "commitVote",
      "outputs": [],
      "stateMutability": "nonpayable",
      "type": "function"
    },
    {
      "inputs": [
        {
          "internalType": "uint256",
          "name": "_proposalId",
          "type": "uint256"
        },
        {
          "internalType": "string",
          "name": "_secret",
          "type": "string"
        }
      ],
      "name": "revealVote",
      "outputs": [],
      "stateMutability": "nonpayable",
      "type": "function"
    },
    {
      "inputs": [
        {
          "internalType": "uint256",
          "name": "_proposalId",
          "type": "uint256"
        }
      ],
      "name": "deleteProposal",
      "outputs": [],
      "stateMutability": "nonpayable",
      "type": "function"
    },
    {
      "inputs": [
        {
          "internalType": "uint256",
          "name": "_proposalId",
          "type": "uint256"
        }
      ],
      "name": "vote",
      "outputs": [],
      "stateMutability": "nonpayable",
      "type": "function"
    },
    {
      "inputs": [],
      "name": "getResults",
      "outputs": [
        {
          "components": [
            {
              "internalType": "uint256",
              "name": "id",
              "type": "uint256"
            },
            {
              "internalType": "string",
              "name": "description",
              "type": "string"
            },
            {
              "internalType": "uint256",
              "name": "voteCount",
              "type": "uint256"
            }
          ],
          "internalType": "struct VotingSystem.Proposal[]",
          "name": "",
          "type": "tuple[]"
        }
      ],
      "stateMutability": "view",
      "type": "function",
      "constant": true
    },
    {
      "inputs": [
        {
          "internalType": "uint256",
          "name": "_proposalId",
          "type": "uint256"
        }
      ],
      "name": "getVoteCount",
      "outputs": [
        {
          "internalType": "uint256",
          "name": "",
          "type": "uint256"
        }
      ],
      "stateMutability": "view",
      "type": "function",
      "constant": true
    },
    {
      "inputs": [],
      "name": "endVoting",
      "outputs": [],
      "stateMutability": "nonpayable",
      "type": "function"
    }
  ],
  "bytecode": "0x6080604052607860025534801561001557600080fd5b50336000806101000a81548173ffffffffffffffffffffffffffffffffffffffff021916908373ffffffffffffffffffffffffffffffffffffffff1602179055506000600560006101000a81548160ff0219169083600281111561007c5761007b610086565b5b02179055506100b5565b7f4e487b7100000000000000000000000000000000000000000000000000000000600052602160045260246000fd5b612aa180620000c56000396000f3fe608060405234801561001057600080fd5b50600436106101375760003560e01c80636100978e116100b8578063a51346201161007c578063a51346201461031b578063b2c2f2e814610339578063c3403ddf14610369578063d5e50a6314610373578063dd0e237314610391578063f851a440146103c157610137565b80636100978e14610274578063772c8161146102925780638259d553146102ae57806393a92e8b146102ca578063a3ec138d146102e857610137565b80633e858923116100ff5780633e858923146101e257806342169e48146101fe5780634717f97c1461021c57806349c2a1a61461023a578063609ff1bd1461025657610137565b80630121b93f1461013c578063013cf08b14610158578063055ad42e1461018a5780630a9f46ad146101a857806338db6dd3146101c6575b600080fd5b6101566004803603810190610151919061198e565b6103df565b005b610172600480360381019061016d919061198e565b6106fa565b60405161018193929190611a5a565b60405180910390f35b6101926107ac565b60405161019f9190611b0f565b60405180910390f35b6101b06107bf565b6040516101bd9190611b2a565b60405180910390f35b6101e060048036038101906101db9190611ba3565b6107c5565b005b6101fc60048036038101906101f79190611c06565b610a95565b005b610206610cab565b6040516102139190611b2a565b60405180910390f35b610224610cb1565b6040516102319190611d9e565b60405180910390f35b610254600480360381019061024f9190611ef5565b610e26565b005b61025e610f6a565b60405161026b9190611b2a565b60405180910390f35b61027c610f70565b6040516102899190611b2a565b60405180910390f35b6102ac60048036038101906102a79190611f3e565b610f76565b005b6102c860048036038101906102c3919061198e565b611284565b005b6102d2611533565b6040516102df9190611b2a565b60405180910390f35b61030260048036038101906102fd9190611ba3565b611539565b6040516103129493929190611fc4565b60405180910390f35b610323611583565b6040516103309190612059565b60405180910390f35b610353600480360381019061034e919061198e565b611656565b6040516103609190611b2a565b60405180910390f35b6103716116c6565b005b61037b61186a565b6040516103889190611b2a565b60405180910390f35b6103ab60048036038101906103a6919061198e565b61186f565b6040516103b8919061208a565b60405180910390f35b6103c96118a2565b6040516103d6919061208a565b60405180910390f35b6000811180156103f157506001548111155b610430576040517f08c379a0000000000000000000000000000000000000000000000000000000008152600401610427906120f1565b60405180910390fd5b600660003373ffffffffffffffffffffffffffffffffffffffff1673ffffffffffffffffffffffffffffffffffffffff16815260200190815260200160002060000160009054906101000a900460ff166104bf576040517f08c379a00000000000000000000000000000000000000000000000000000000081526004016104b69061215d565b60405180910390fd5b600660003373ffffffffffffffffffffffffffffffffffffffff1673ffffffffffffffffffffffffffffffffffffffff16815260200190815260200160002060000160019054906101000a900460ff16158061055c575080600660003373ffffffffffffffffffffffffffffffffffffffff1673ffffffffffffffffffffffffffffffffffffffff16815260200190815260200160002060010154145b61059b576040517f08c379a0000000000000000000000000000000000000000000000000000000008152600401610592906121c9565b60405180910390fd5b600660003373ffffffffffffffffffffffffffffffffffffffff1673ffffffffffffffffffffffffffffffffffffffff16815260200190815260200160002060000160019054906101000a900460ff166106f7576001600660003373ffffffffffffffffffffffffffffffffffffffff1673ffffffffffffffffffffffffffffffffffffffff16815260200190815260200160002060000160016101000a81548160ff02191690831515021790555080600660003373ffffffffffffffffffffffffffffffffffffffff1673ffffffffffffffffffffffffffffffffffffffff168152602001908152602001600020600101819055506007600082815260200190815260200160002060020160008154809291906106b890612218565b91905055507fd0e6c39f2e086dc49f1524b47725526a56945cd1ff661f37976f1725a1e5698633826040516106ee929190612260565b60405180910390a15b50565b6007602052806000526040600020600091509050806000015490806001018054610723906122b8565b80601f016020809104026020016040519081016040528092919081815260200182805461074f906122b8565b801561079c5780601f106107715761010080835404028352916020019161079c565b820191906000526020600020905b81548152906001019060200180831161077f57829003601f168201915b5050505050908060020154905083565b600560009054906101000a900460ff1681565b60015481565b60008054906101000a900473ffffffffffffffffffffffffffffffffffffffff1673ffffffffffffffffffffffffffffffffffffffff163373ffffffffffffffffffffffffffffffffffffffff1614610853576040517f08c379a000000000000000000000000000000000000000000000000000000000815260040161084a9061235b565b60405180910390fd5b600660008273ffffffffffffffffffffffffffffffffffffffff1673ffffffffffffffffffffffffffffffffffffffff16815260200190815260200160002060000160009054906101000a900460ff16156108e3576040517f08c379a00000000000000000000000000000000000000000000000000000000081526004016108da906123c7565b60405180910390fd5b6040518060800160405280600115158152602001600015158152602001600081526020016000801916815250600660008373ffffffffffffffffffffffffffffffffffffffff1673ffffffffffffffffffffffffffffffffffffffff16815260200190815260200160002060008201518160000160006101000a81548160ff02191690831515021790555060208201518160000160016101000a81548160ff02191690831515021790555060408201518160010155606082015181600201559050508060086000600954815260200190815260200160002060006101000a81548173ffffffffffffffffffffffffffffffffffffffff021916908373ffffffffffffffffffffffffffffffffffffffff16021790555060096000815480929190610a0c90612218565b91905055507fb6be2187d059cc2a55fe29e0e503b566e1e0f8c8780096e185429350acffd3dd81604051610a40919061208a565b60405180910390a1600560095403610a925760025442610a6091906123e7565b6003819055506000600560006101000a81548160ff02191690836002811115610a8c57610a8b611a98565b5b02179055505b50565b60006002811115610aa957610aa8611a98565b5b600560009054906101000a900460ff166002811115610acb57610aca611a98565b5b14610b0b576040517f08c379a0000000000000000000000000000000000000000000000000000000008152600401610b0290612467565b60405180910390fd5b600660003373ffffffffffffffffffffffffffffffffffffffff1673ffffffffffffffffffffffffffffffffffffffff16815260200190815260200160002060000160009054906101000a900460ff16610b9a576040517f08c379a0000000000000000000000000000000000000000000000000000000008152600401610b919061215d565b60405180910390fd5b600660003373ffffffffffffffffffffffffffffffffffffffff1673ffffffffffffffffffffffffffffffffffffffff16815260200190815260200160002060000160019054906101000a900460ff1615610c2a576040517f08c379a0000000000000000000000000000000000000000000000000000000008152600401610c21906121c9565b60405180910390fd5b80600660003373ffffffffffffffffffffffffffffffffffffffff1673ffffffffffffffffffffffffffffffffffffffff168152602001908152602001600020600201819055507fd8333eeb60b5f1fb9e6e2c3c665fb5ec81dee6d37fcd17dda27d169009d6c7eb33604051610ca0919061208a565b60405180910390a150565b60095481565b6060600060015467ffffffffffffffff811115610cd157610cd0611dca565b5b604051908082528060200260200182016040528015610d0a57816020015b610cf76118c6565b815260200190600190039081610cef5790505b5090506000600190505b6001548111610e1e576007600082815260200190815260200160002060405180606001604052908160008201548152602001600182018054610d55906122b8565b80601f0160208091040260200160405190810160405280929190818152602001828054610d81906122b8565b8015610dce5780601f10610da357610100808354040283529160200191610dce565b820191906000526020600020905b815481529060010190602001808311610db157829003601f168201915b5050505050815260200160028201548152505082600183610def9190612487565b81518110610e0057610dff6124bb565b5b60200260200101819052508080610e1690612218565b915050610d14565b508091505090565b60008054906101000a900473ffffffffffffffffffffffffffffffffffffffff1673ffffffffffffffffffffffffffffffffffffffff163373ffffffffffffffffffffffffffffffffffffffff1614610eb4576040517f08c379a0000000000000000000000000000000000000000000000000000000008152600401610eab9061235b565b60405180910390fd5b60016000815480929190610ec790612218565b9190505550604051806060016040528060015481526020018281526020016000815250600760006001548152602001908152602001600020600082015181600001556020820151816001019081610f1e9190612696565b50604082015181600201559050507f9c770c289ab5bf7e57cb1d23c8ceae993aea46eb64847072fd3d78ca60d3e43260015482604051610f5f929190612768565b60405180910390a150565b60045481565b60025481565b60016002811115610f8a57610f89611a98565b5b600560009054906101000a900460ff166002811115610fac57610fab611a98565b5b5050600660003373ffffffffffffffffffffffffffffffffffffffff1673ffffffffffffffffffffffffffffffffffffffff16815260200190815260200160002060000160009054906101000a900460ff1661103d576040517f08c379a00000000000000000000000000000000000000000000000000000000081526004016110349061215d565b60405180910390fd5b600660003373ffffffffffffffffffffffffffffffffffffffff1673ffffffffffffffffffffffffffffffffffffffff16815260200190815260200160002060000160019054906101000a900460ff16156110cd576040517f08c379a00000000000000000000000000000000000000000000000000000000081526004016110c4906121c9565b60405180910390fd5b600660003373ffffffffffffffffffffffffffffffffffffffff1673ffffffffffffffffffffffffffffffffffffffff1681526020019081526020016000206002015482826040516020016111239291906127f5565b6040516020818303038152906040528051906020012014611179576040517f08c379a000000000000000000000000000000000000000000000000000000000815260040161117090612869565b60405180910390fd5b6001600660003373ffffffffffffffffffffffffffffffffffffffff1673ffffffffffffffffffffffffffffffffffffffff16815260200190815260200160002060000160016101000a81548160ff02191690831515021790555081600660003373ffffffffffffffffffffffffffffffffffffffff1673ffffffffffffffffffffffffffffffffffffffff1681526020019081526020016000206001018190555060076000838152602001908152602001600020600201600081548092919061124290612218565b91905055507f522b45c661375abb939dc17b4b600412c93af64fcbe24859a73539d01bb4eec83383604051611278929190612260565b60405180910390a15050565b60008054906101000a900473ffffffffffffffffffffffffffffffffffffffff1673ffffffffffffffffffffffffffffffffffffffff163373ffffffffffffffffffffffffffffffffffffffff1614611312576040517f08c379a00000000000000000000000000000000000000000000000000000000081526004016113099061235b565b60405180910390fd5b60008111801561132457506001548111155b611363576040517f08c379a000000000000000000000000000000000000000000000000000000000815260040161135a906120f1565b60405180910390fd5b60005b60095481101561144e5760006008600083815260200190815260200160002060009054906101000a900473ffffffffffffffffffffffffffffffffffffffff1690506000600660008373ffffffffffffffffffffffffffffffffffffffff1673ffffffffffffffffffffffffffffffffffffffff16815260200190815260200160002090508060000160019054906101000a900460ff16801561140c5750838160010154145b156114395760008160000160016101000a81548160ff021916908315150217905550600081600101819055505b5050808061144690612218565b915050611366565b50600060076000600154815260200190815260200160002090508060076000848152602001908152602001600020600082015481600001556001820181600101908161149a919061289f565b50600282015481600201559050506007600060015481526020019081526020016000206000808201600090556001820160006114d691906118e7565b60028201600090555050600160008154809291906114f390612987565b91905055507f61c0d93dc2b610877e420b107c8d12e9185e46e04a505da758cc7f7329ae545f826040516115279190611b2a565b60405180910390a15050565b60035481565b60066020528060005260406000206000915090508060000160009054906101000a900460ff16908060000160019054906101000a900460ff16908060010154908060020154905084565b61158b6118c6565b600760006004548152602001908152602001600020604051806060016040529081600082015481526020016001820180546115c5906122b8565b80601f01602080910402602001604051908101604052809291908181526020018280546115f1906122b8565b801561163e5780601f106116135761010080835404028352916020019161163e565b820191906000526020600020905b81548152906001019060200180831161162157829003601f168201915b50505050508152602001600282015481525050905090565b6000808211801561166957506001548211155b6116a8576040517f08c379a000000000000000000000000000000000000000000000000000000000815260040161169f906120f1565b60405180910390fd5b60076000838152602001908152602001600020600201549050919050565b60008054906101000a900473ffffffffffffffffffffffffffffffffffffffff1673ffffffffffffffffffffffffffffffffffffffff163373ffffffffffffffffffffffffffffffffffffffff1614611754576040517f08c379a000000000000000000000000000000000000000000000000000000000815260040161174b9061235b565b60405180910390fd5b6002600560006101000a81548160ff0219169083600281111561177a57611779611a98565b5b02179055506003544210156117c4576040517f08c379a00000000000000000000000000000000000000000000000000000000081526004016117bb90612a22565b60405180910390fd5b6000806000600190505b600154811161182557816007600083815260200190815260200160002060020154111561181257600760008281526020019081526020016000206002015491508092505b808061181d90612218565b9150506117ce565b507f04e400203b6647e7ab88412380ee2430174c77bd98021012d3647eb3fa63f63f8282604051611857929190612a42565b60405180910390a1816004819055505050565b600581565b60086020528060005260406000206000915054906101000a900473ffffffffffffffffffffffffffffffffffffffff1681565b60008054906101000a900473ffffffffffffffffffffffffffffffffffffffff1681565b60405180606001604052806000815260200160608152602001600081525090565b5080546118f3906122b8565b6000825580601f106119055750611924565b601f0160209004906000526020600020908101906119239190611927565b5b50565b5b80821115611940576000816000905550600101611928565b5090565b6000604051905090565b600080fd5b600080fd5b6000819050919050565b61196b81611958565b811461197657600080fd5b50565b60008135905061198881611962565b92915050565b6000602082840312156119a4576119a361194e565b5b60006119b284828501611979565b91505092915050565b6119c481611958565b82525050565b600081519050919050565b600082825260208201905092915050565b60005b83811015611a045780820151818401526020810190506119e9565b60008484015250505050565b6000601f19601f8301169050919050565b6000611a2c826119ca565b611a3681856119d5565b9350611a468185602086016119e6565b611a4f81611a10565b840191505092915050565b6000606082019050611a6f60008301866119bb565b8181036020830152611a818185611a21565b9050611a9060408301846119bb565b949350505050565b7f4e487b7100000000000000000000000000000000000000000000000000000000600052602160045260246000fd5b60038110611ad857611ad7611a98565b5b50565b6000819050611ae982611ac7565b919050565b6000611af982611adb565b9050919050565b611b0981611aee565b82525050565b6000602082019050611b246000830184611b00565b92915050565b6000602082019050611b3f60008301846119bb565b92915050565b600073ffffffffffffffffffffffffffffffffffffffff82169050919050565b6000611b7082611b45565b9050919050565b611b8081611b65565b8114611b8b57600080fd5b50565b600081359050611b9d81611b77565b92915050565b600060208284031215611bb957611bb861194e565b5b6000611bc784828501611b8e565b91505092915050565b6000819050919050565b611be381611bd0565b8114611bee57600080fd5b50565b600081359050611c0081611bda565b92915050565b600060208284031215611c1c57611c1b61194e565b5b6000611c2a84828501611bf1565b91505092915050565b600081519050919050565b600082825260208201905092915050565b6000819050602082019050919050565b611c6881611958565b82525050565b600082825260208201905092915050565b6000611c8a826119ca565b611c948185611c6e565b9350611ca48185602086016119e6565b611cad81611a10565b840191505092915050565b6000606083016000830151611cd06000860182611c5f565b5060208301518482036020860152611ce88282611c7f565b9150506040830151611cfd6040860182611c5f565b508091505092915050565b6000611d148383611cb8565b905092915050565b6000602082019050919050565b6000611d3482611c33565b611d3e8185611c3e565b935083602082028501611d5085611c4f565b8060005b85811015611d8c5784840389528151611d6d8582611d08565b9450611d7883611d1c565b925060208a01995050600181019050611d54565b50829750879550505050505092915050565b60006020820190508181036000830152611db88184611d29565b905092915050565b600080fd5b600080fd5b7f4e487b7100000000000000000000000000000000000000000000000000000000600052604160045260246000fd5b611e0282611a10565b810181811067ffffffffffffffff82111715611e2157611e20611dca565b5b80604052505050565b6000611e34611944565b9050611e408282611df9565b919050565b600067ffffffffffffffff821115611e6057611e5f611dca565b5b611e6982611a10565b9050602081019050919050565b82818337600083830152505050565b6000611e98611e9384611e45565b611e2a565b905082815260208101848484011115611eb457611eb3611dc5565b5b611ebf848285611e76565b509392505050565b600082601f830112611edc57611edb611dc0565b5b8135611eec848260208601611e85565b91505092915050565b600060208284031215611f0b57611f0a61194e565b5b600082013567ffffffffffffffff811115611f2957611f28611953565b5b611f3584828501611ec7565b91505092915050565b60008060408385031215611f5557611f5461194e565b5b6000611f6385828601611979565b925050602083013567ffffffffffffffff811115611f8457611f83611953565b5b611f9085828601611ec7565b9150509250929050565b60008115159050919050565b611faf81611f9a565b82525050565b611fbe81611bd0565b82525050565b6000608082019050611fd96000830187611fa6565b611fe66020830186611fa6565b611ff360408301856119bb565b6120006060830184611fb5565b95945050505050565b60006060830160008301516120216000860182611c5f565b50602083015184820360208601526120398282611c7f565b915050604083015161204e6040860182611c5f565b508091505092915050565b600060208201905081810360008301526120738184612009565b905092915050565b61208481611b65565b82525050565b600060208201905061209f600083018461207b565b92915050565b7f496e76616c69642070726f706f73616c20494400000000000000000000000000600082015250565b60006120db6013836119d5565b91506120e6826120a5565b602082019050919050565b6000602082019050818103600083015261210a816120ce565b9050919050565b7f566f746572206973206e6f742072656769737465726564000000000000000000600082015250565b60006121476017836119d5565b915061215282612111565b602082019050919050565b600060208201905081810360008301526121768161213a565b9050919050565b7f566f7465722068617320616c726561647920766f746564000000000000000000600082015250565b60006121b36017836119d5565b91506121be8261217d565b602082019050919050565b600060208201905081810360008301526121e2816121a6565b9050919050565b7f4e487b7100000000000000000000000000000000000000000000000000000000600052601160045260246000fd5b600061222382611958565b91507fffffffffffffffffffffffffffffffffffffffffffffffffffffffffffffffff8203612255576122546121e9565b5b600182019050919050565b6000604082019050612275600083018561207b565b61228260208301846119bb565b9392505050565b7f4e487b7100000000000000000000000000000000000000000000000000000000600052602260045260246000fd5b600060028204905060018216806122d057607f821691505b6020821081036122e3576122e2612289565b5b50919050565b7f4f6e6c792061646d696e2063616e20706572666f726d2074686973206163746960008201527f6f6e000000000000000000000000000000000000000000000000000000000000602082015250565b60006123456022836119d5565b9150612350826122e9565b604082019050919050565b6000602082019050818103600083015261237481612338565b9050919050565b7f566f74657220697320616c726561647920726567697374657265640000000000600082015250565b60006123b1601b836119d5565b91506123bc8261237b565b602082019050919050565b600060208201905081810360008301526123e0816123a4565b9050919050565b60006123f282611958565b91506123fd83611958565b9250828201905080821115612415576124146121e9565b5b92915050565b7f4e6f7420696e20636f6d6d697420706861736500000000000000000000000000600082015250565b60006124516013836119d5565b915061245c8261241b565b602082019050919050565b6000602082019050818103600083015261248081612444565b9050919050565b600061249282611958565b915061249d83611958565b92508282039050818111156124b5576124b46121e9565b5b92915050565b7f4e487b7100000000000000000000000000000000000000000000000000000000600052603260045260246000fd5b60008190508160005260206000209050919050565b60006020601f8301049050919050565b600082821b905092915050565b60006008830261254c7fffffffffffffffffffffffffffffffffffffffffffffffffffffffffffffffff8261250f565b612556868361250f565b95508019841693508086168417925050509392505050565b6000819050919050565b600061259361258e61258984611958565b61256e565b611958565b9050919050565b6000819050919050565b6125ad83612578565b6125c16125b98261259a565b84845461251c565b825550505050565b600090565b6125d66125c9565b6125e18184846125a4565b505050565b5b81811015612605576125fa6000826125ce565b6001810190506125e7565b5050565b601f82111561264a5761261b816124ea565b612624846124ff565b81016020851015612633578190505b61264761263f856124ff565b8301826125e6565b50505b505050565b600082821c905092915050565b600061266d6000198460080261264f565b1980831691505092915050565b6000612686838361265c565b9150826002028217905092915050565b61269f826119ca565b67ffffffffffffffff8111156126b8576126b7611dca565b5b6126c282546122b8565b6126cd828285612609565b600060209050601f83116001811461270057600084156126ee578287015190505b6126f8858261267a565b865550612760565b601f19841661270e866124ea565b60005b8281101561273657848901518255600182019150602085019450602081019050612711565b86831015612753578489015161274f601f89168261265c565b8355505b6001600288020188555050505b505050505050565b600060408201905061277d60008301856119bb565b818103602083015261278f8184611a21565b90509392505050565b6000819050919050565b6127b36127ae82611958565b612798565b82525050565b600081905092915050565b60006127cf826119ca565b6127d981856127b9565b93506127e98185602086016119e6565b80840191505092915050565b600061280182856127a2565b60208201915061281182846127c4565b91508190509392505050565b7f566f746520646f65736e2774206d6174636820636f6d6d697400000000000000600082015250565b60006128536019836119d5565b915061285e8261281d565b602082019050919050565b6000602082019050818103600083015261288281612846565b9050919050565b600081549050612898816122b8565b9050919050565b8181036128ad575050612985565b6128b682612889565b67ffffffffffffffff8111156128cf576128ce611dca565b5b6128d982546122b8565b6128e4828285612609565b6000601f8311600181146129135760008415612901578287015490505b61290b858261267a565b86555061297e565b601f198416612921876124ea565b965061292c866124ea565b60005b828110156129545784890154825560018201915060018501945060208101905061292f565b86831015612971578489015461296d601f89168261265c565b8355505b6001600288020188555050505b5050505050505b565b600061299282611958565b9150600082036129a5576129a46121e9565b5b600182039050919050565b7f566f74696e6720726573756c742074696d6520686173206e6f74206265656e2060008201527f7265616368656400000000000000000000000000000000000000000000000000602082015250565b6000612a0c6027836119d5565b9150612a17826129b0565b604082019050919050565b60006020820190508181036000830152612a3b816129ff565b9050919050565b6000604082019050612a5760008301856119bb565b612a6460208301846119bb565b939250505056fea2646970667358221220538a1012c4ab4f57acbe98cd049a5c705f45287861e88feb819f157e1ac68ef364736f6c63430008130033",
  "immutableReferences": {},
  "source": "pragma solidity ^0.8.0;\n\ncontract VotingSystem {\n    // State variables\n    address public admin;\n    uint256 public proposalsCount;\n    uint256 public constant maxVoters = 5;\n    uint256 public resultDelay = 2 minutes;\n    uint256 public resultTime;\n    uint256 public winningProposal;\n\n    enum VotingPhase {Commit, Reveal, End}\n\n    VotingPhase public currentPhase;\n\n    struct Voter {\n        bool isRegistered;\n        bool hasVoted;\n        uint256 voteIndex;\n        bytes32 voteCommit;\n    }\n\n    struct Proposal {\n        uint256 id;\n        string description;\n        uint256 voteCount;\n    }\n\n    mapping(address => Voter) public voters;\n    mapping(uint256 => Proposal) public proposals;\n\n    mapping(uint256 => address) public voterAddresses;\n    uint256 public voterCount;\n\n\n    // Events\n    event VoterRegistered(address voterAddress);\n    event ProposalCreated(uint256 proposalId, string description);\n    event VoteCommitted(address voter);\n    event VoteCasted(address voter, uint256 proposalId);\n    event VoteRevealed(address voter, uint256 proposalId);\n    event ProposalDeleted(uint256 proposalId);\n    event VotingEnded(uint256 winningProposalId, uint256 winningVoteCount);\n\n    // Constructor\n    constructor() {\n        admin = msg.sender;\n        currentPhase = VotingPhase.Commit;\n    }\n\n    // Modifier\n    modifier onlyAdmin() {\n        require(msg.sender == admin, \"Only admin can perform this action\");\n        _;\n    }\n\n    // Functions\n\n    function registerVoter(address _voterAddress) public onlyAdmin {\n        require(!voters[_voterAddress].isRegistered, \"Voter is already registered\");\n\n        voters[_voterAddress] = Voter(true, false, 0, \"\");\n        voterAddresses[voterCount] = _voterAddress;\n        voterCount++;\n\n        emit VoterRegistered(_voterAddress);\n\n        if (voterCount == maxVoters) {\n            resultTime = block.timestamp + resultDelay;\n            currentPhase = VotingPhase.Commit;\n        }\n    }\n\n    function getWinningProposal() public view returns (Proposal memory) {\n        return proposals[winningProposal];\n    }\n\n\n    function createProposal(string memory _description) public onlyAdmin {\n        proposalsCount++;\n        proposals[proposalsCount] = Proposal(proposalsCount, _description, 0);\n\n        emit ProposalCreated(proposalsCount, _description);\n    }\n\n    function commitVote(bytes32 _voteCommit) public {\n        require(currentPhase == VotingPhase.Commit, \"Not in commit phase\");\n        require(voters[msg.sender].isRegistered, \"Voter is not registered\");\n        require(!voters[msg.sender].hasVoted, \"Voter has already voted\");\n\n        voters[msg.sender].voteCommit = _voteCommit;\n        emit VoteCommitted(msg.sender);\n    }\n\n    function revealVote(uint256 _proposalId, string memory _secret) public {\n        currentPhase == VotingPhase.Reveal;\n        require(voters[msg.sender].isRegistered, \"Voter is not registered\");\n        require(!voters[msg.sender].hasVoted, \"Voter has already voted\");\n\n        // Check if committed hash matches the revealed vote\n        require(keccak256(abi.encodePacked(_proposalId, _secret)) == voters[msg.sender].voteCommit, \"Vote doesn't match commit\");\n\n        voters[msg.sender].hasVoted = true;\n        voters[msg.sender].voteIndex = _proposalId;\n        proposals[_proposalId].voteCount++;\n\n        emit VoteRevealed(msg.sender, _proposalId);\n    }\n\n\n    function deleteProposal(uint256 _proposalId) public onlyAdmin {\n        require(_proposalId > 0 && _proposalId <= proposalsCount, \"Invalid proposal ID\");\n\n    // Reset the voting power of voters who have voted for the deleted proposal\n    for (uint256 i = 0; i < voterCount; i++) {\n        address voterAddress = voterAddresses[i];\n        Voter storage voter = voters[voterAddress];\n        if (voter.hasVoted && voter.voteIndex == _proposalId) {\n            voter.hasVoted = false;\n            voter.voteIndex = 0;\n        }\n    }\n\n        Proposal storage lastProposal = proposals[proposalsCount];\n        proposals[_proposalId] = lastProposal;\n        delete proposals[proposalsCount];\n        proposalsCount--;\n\n        emit ProposalDeleted(_proposalId);\n    }\n\n    function vote(uint256 _proposalId) public {\n        require(_proposalId > 0 && _proposalId <= proposalsCount, \"Invalid proposal ID\");\n    require(voters[msg.sender].isRegistered, \"Voter is not registered\");\n    require(!voters[msg.sender].hasVoted || voters[msg.sender].voteIndex == _proposalId, \"Voter has already voted\");\n\n    if (!voters[msg.sender].hasVoted) {\n        voters[msg.sender].hasVoted = true;\n        voters[msg.sender].voteIndex = _proposalId;\n        proposals[_proposalId].voteCount++;\n        emit VoteCasted(msg.sender, _proposalId);\n    }\n    }\n\n    function getResults() public view returns (Proposal[] memory) {\n        Proposal[] memory results = new Proposal[](proposalsCount);\n\n        for (uint256 i = 1; i <= proposalsCount; i++) {\n            results[i - 1] = proposals[i];\n        }\n\n        return results;\n    }\n\n    function getVoteCount(uint256 _proposalId) public view returns (uint256) {\n    require(_proposalId > 0 && _proposalId <= proposalsCount, \"Invalid proposal ID\");\n\n    return proposals[_proposalId].voteCount;\n    }\n\n\n    function endVoting() public onlyAdmin {\n        currentPhase = VotingPhase.End;\n        require(block.timestamp >= resultTime, \"Voting result time has not been reached\");\n\n\n        uint256 winningProposalId = 0;\n        uint256 winningVoteCount = 0;\n\n        for (uint256 i = 1; i <= proposalsCount; i++) {\n            if (proposals[i].voteCount > winningVoteCount) {\n                winningVoteCount = proposals[i].voteCount;\n                winningProposalId = i;\n            }\n        }\n\n        emit VotingEnded(winningProposalId, winningVoteCount);\n        winningProposal = winningProposalId;\n    }\n\n}\n",
  "sourcePath": "/Users/abiks/Desktop/evoting_dapp_blockchain/contracts/VotingSystem.sol",
  "compiler": {
    "name": "solc",
    "version": "0.8.19+commit.7dd6d404.Emscripten.clang"
  },
  "schemaVersion": "3.4.13",
  "updatedAt": "2023-05-14T19:33:25.773Z",
  "networkType": "ethereum",
  "devdoc": {
    "kind": "dev",
    "methods": {},
    "version": 1
  },
  "userdoc": {
    "kind": "user",
    "methods": {},
    "version": 1
  }
}