{
  "contractName": "VotingSystem",
  "abi": [
    {
      "inputs": [],
      "stateMutability": "nonpayable",
      "type": "constructor"
    },
    {
      "anonymous": false,
      "inputs": [
        {
          "indexed": false,
          "internalType": "uint256",
          "name": "proposalId",
          "type": "uint256"
        },
        {
          "indexed": false,
          "internalType": "string",
          "name": "description",
          "type": "string"
        }
      ],
      "name": "ProposalCreated",
      "type": "event"
    },
    {
      "anonymous": false,
      "inputs": [
        {
          "indexed": false,
          "internalType": "uint256",
          "name": "proposalId",
          "type": "uint256"
        }
      ],
      "name": "ProposalDeleted",
      "type": "event"
    },
    {
      "anonymous": false,
      "inputs": [
        {
          "indexed": false,
          "internalType": "address",
          "name": "voter",
          "type": "address"
        },
        {
          "indexed": false,
          "internalType": "uint256",
          "name": "proposalId",
          "type": "uint256"
        }
      ],
      "name": "VoteCasted",
      "type": "event"
    },
    {
      "anonymous": false,
      "inputs": [
        {
          "indexed": false,
          "internalType": "address",
          "name": "voter",
          "type": "address"
        }
      ],
      "name": "VoteCommitted",
      "type": "event"
    },
    {
      "anonymous": false,
      "inputs": [
        {
          "indexed": false,
          "internalType": "address",
          "name": "voter",
          "type": "address"
        },
        {
          "indexed": false,
          "internalType": "uint256",
          "name": "proposalId",
          "type": "uint256"
        }
      ],
      "name": "VoteRevealed",
      "type": "event"
    },
    {
      "anonymous": false,
      "inputs": [
        {
          "indexed": false,
          "internalType": "address",
          "name": "voterAddress",
          "type": "address"
        }
      ],
      "name": "VoterRegistered",
      "type": "event"
    },
    {
      "anonymous": false,
      "inputs": [
        {
          "indexed": false,
          "internalType": "uint256",
          "name": "winningProposalId",
          "type": "uint256"
        },
        {
          "indexed": false,
          "internalType": "uint256",
          "name": "winningVoteCount",
          "type": "uint256"
        },
        {
          "indexed": false,
          "internalType": "uint256",
          "name": "winningStake",
          "type": "uint256"
        }
      ],
      "name": "VotingEnded",
      "type": "event"
    },
    {
      "inputs": [],
      "name": "admin",
      "outputs": [
        {
          "internalType": "address",
          "name": "",
          "type": "address"
        }
      ],
      "stateMutability": "view",
      "type": "function",
      "constant": true
    },
    {
      "inputs": [],
      "name": "currentPhase",
      "outputs": [
        {
          "internalType": "enum VotingSystem.VotingPhase",
          "name": "",
          "type": "uint8"
        }
      ],
      "stateMutability": "view",
      "type": "function",
      "constant": true
    },
    {
      "inputs": [],
      "name": "maxVoters",
      "outputs": [
        {
          "internalType": "uint256",
          "name": "",
          "type": "uint256"
        }
      ],
      "stateMutability": "view",
      "type": "function",
      "constant": true
    },
    {
      "inputs": [
        {
          "internalType": "uint256",
          "name": "",
          "type": "uint256"
        }
      ],
      "name": "proposals",
      "outputs": [
        {
          "internalType": "uint256",
          "name": "id",
          "type": "uint256"
        },
        {
          "internalType": "string",
          "name": "description",
          "type": "string"
        },
        {
          "internalType": "uint256",
          "name": "voteCount",
          "type": "uint256"
        },
        {
          "internalType": "uint256",
          "name": "totalStake",
          "type": "uint256"
        }
      ],
      "stateMutability": "view",
      "type": "function",
      "constant": true
    },
    {
      "inputs": [],
      "name": "proposalsCount",
      "outputs": [
        {
          "internalType": "uint256",
          "name": "",
          "type": "uint256"
        }
      ],
      "stateMutability": "view",
      "type": "function",
      "constant": true
    },
    {
      "inputs": [],
      "name": "resultDelay",
      "outputs": [
        {
          "internalType": "uint256",
          "name": "",
          "type": "uint256"
        }
      ],
      "stateMutability": "view",
      "type": "function",
      "constant": true
    },
    {
      "inputs": [],
      "name": "resultTime",
      "outputs": [
        {
          "internalType": "uint256",
          "name": "",
          "type": "uint256"
        }
      ],
      "stateMutability": "view",
      "type": "function",
      "constant": true
    },
    {
      "inputs": [
        {
          "internalType": "uint256",
          "name": "",
          "type": "uint256"
        }
      ],
      "name": "voterAddresses",
      "outputs": [
        {
          "internalType": "address",
          "name": "",
          "type": "address"
        }
      ],
      "stateMutability": "view",
      "type": "function",
      "constant": true
    },
    {
      "inputs": [],
      "name": "voterCount",
      "outputs": [
        {
          "internalType": "uint256",
          "name": "",
          "type": "uint256"
        }
      ],
      "stateMutability": "view",
      "type": "function",
      "constant": true
    },
    {
      "inputs": [
        {
          "internalType": "address",
          "name": "",
          "type": "address"
        }
      ],
      "name": "voters",
      "outputs": [
        {
          "internalType": "bool",
          "name": "isRegistered",
          "type": "bool"
        },
        {
          "internalType": "bool",
          "name": "hasVoted",
          "type": "bool"
        },
        {
          "internalType": "uint256",
          "name": "voteIndex",
          "type": "uint256"
        },
        {
          "internalType": "bytes32",
          "name": "voteCommit",
          "type": "bytes32"
        },
        {
          "internalType": "uint256",
          "name": "stake",
          "type": "uint256"
        }
      ],
      "stateMutability": "view",
      "type": "function",
      "constant": true
    },
    {
      "inputs": [],
      "name": "winningProposal",
      "outputs": [
        {
          "internalType": "uint256",
          "name": "",
          "type": "uint256"
        }
      ],
      "stateMutability": "view",
      "type": "function",
      "constant": true
    },
    {
      "inputs": [
        {
          "internalType": "address",
          "name": "_voterAddress",
          "type": "address"
        },
        {
          "internalType": "uint256",
          "name": "_stake",
          "type": "uint256"
        }
      ],
      "name": "registerVoter",
      "outputs": [],
      "stateMutability": "nonpayable",
      "type": "function"
    },
    {
      "inputs": [],
      "name": "getWinningProposal",
      "outputs": [
        {
          "components": [
            {
              "internalType": "uint256",
              "name": "id",
              "type": "uint256"
            },
            {
              "internalType": "string",
              "name": "description",
              "type": "string"
            },
            {
              "internalType": "uint256",
              "name": "voteCount",
              "type": "uint256"
            },
            {
              "internalType": "uint256",
              "name": "totalStake",
              "type": "uint256"
            }
          ],
          "internalType": "struct VotingSystem.Proposal",
          "name": "",
          "type": "tuple"
        }
      ],
      "stateMutability": "view",
      "type": "function",
      "constant": true
    },
    {
      "inputs": [
        {
          "internalType": "string",
          "name": "_description",
          "type": "string"
        }
      ],
      "name": "createProposal",
      "outputs": [],
      "stateMutability": "nonpayable",
      "type": "function"
    },
    {
      "inputs": [
        {
          "internalType": "bytes32",
          "name": "_voteCommit",
          "type": "bytes32"
        }
      ],
      "name": "commitVote",
      "outputs": [],
      "stateMutability": "nonpayable",
      "type": "function"
    },
    {
      "inputs": [
        {
          "internalType": "uint256",
          "name": "_proposalId",
          "type": "uint256"
        },
        {
          "internalType": "string",
          "name": "_secret",
          "type": "string"
        }
      ],
      "name": "revealVote",
      "outputs": [],
      "stateMutability": "nonpayable",
      "type": "function"
    },
    {
      "inputs": [
        {
          "internalType": "uint256",
          "name": "_proposalId",
          "type": "uint256"
        }
      ],
      "name": "deleteProposal",
      "outputs": [],
      "stateMutability": "nonpayable",
      "type": "function"
    },
    {
      "inputs": [
        {
          "internalType": "uint256",
          "name": "_proposalId",
          "type": "uint256"
        }
      ],
      "name": "vote",
      "outputs": [],
      "stateMutability": "nonpayable",
      "type": "function"
    },
    {
      "inputs": [],
      "name": "getResults",
      "outputs": [
        {
          "components": [
            {
              "internalType": "uint256",
              "name": "id",
              "type": "uint256"
            },
            {
              "internalType": "string",
              "name": "description",
              "type": "string"
            },
            {
              "internalType": "uint256",
              "name": "voteCount",
              "type": "uint256"
            },
            {
              "internalType": "uint256",
              "name": "totalStake",
              "type": "uint256"
            }
          ],
          "internalType": "struct VotingSystem.Proposal[]",
          "name": "",
          "type": "tuple[]"
        }
      ],
      "stateMutability": "view",
      "type": "function",
      "constant": true
    },
    {
      "inputs": [
        {
          "internalType": "uint256",
          "name": "_proposalId",
          "type": "uint256"
        }
      ],
      "name": "getVoteCount",
      "outputs": [
        {
          "internalType": "uint256",
          "name": "",
          "type": "uint256"
        }
      ],
      "stateMutability": "view",
      "type": "function",
      "constant": true
    },
    {
      "inputs": [],
      "name": "endVoting",
      "outputs": [],
      "stateMutability": "nonpayable",
      "type": "function"
    }
  ],
  "bytecode": "0x608060405260786002553480156200001657600080fd5b50336000806101000a81548173ffffffffffffffffffffffffffffffffffffffff021916908373ffffffffffffffffffffffffffffffffffffffff1602179055506000600560006101000a81548160ff0219169083600281111562000080576200007f6200008b565b5b0217905550620000ba565b7f4e487b7100000000000000000000000000000000000000000000000000000000600052602160045260246000fd5b612de180620000ca6000396000f3fe608060405234801561001057600080fd5b50600436106101375760003560e01c8063772c8161116100b8578063b2c2f2e81161007c578063b2c2f2e81461031f578063c3403ddf1461034f578063cbea81ef14610359578063d5e50a6314610375578063dd0e237314610393578063f851a440146103c357610137565b8063772c8161146102775780638259d5531461029357806393a92e8b146102af578063a3ec138d146102cd578063a51346201461030157610137565b806342169e48116100ff57806342169e48146101e35780634717f97c1461020157806349c2a1a61461021f578063609ff1bd1461023b5780636100978e1461025957610137565b80630121b93f1461013c578063013cf08b14610158578063055ad42e1461018b5780630a9f46ad146101a95780633e858923146101c7575b600080fd5b61015660048036038101906101519190611bd2565b6103e1565b005b610172600480360381019061016d9190611bd2565b6106fc565b6040516101829493929190611c9e565b60405180910390f35b6101936107b4565b6040516101a09190611d61565b60405180910390f35b6101b16107c7565b6040516101be9190611d7c565b60405180910390f35b6101e160048036038101906101dc9190611dcd565b6107cd565b005b6101eb6109e3565b6040516101f89190611d7c565b60405180910390f35b6102096109e9565b6040516102169190611f78565b60405180910390f35b610239600480360381019061023491906120cf565b610b68565b005b610243610cbd565b6040516102509190611d7c565b60405180910390f35b610261610cc3565b60405161026e9190611d7c565b60405180910390f35b610291600480360381019061028c9190612118565b610cc9565b005b6102ad60048036038101906102a89190611bd2565b611046565b005b6102b7611307565b6040516102c49190611d7c565b60405180910390f35b6102e760048036038101906102e291906121d2565b61130d565b6040516102f8959493929190612229565b60405180910390f35b61030961135d565b60405161031691906122df565b60405180910390f35b61033960048036038101906103349190611bd2565b61143a565b6040516103469190611d7c565b60405180910390f35b6103576114aa565b005b610373600480360381019061036e9190612301565b611749565b005b61037d611a84565b60405161038a9190611d7c565b60405180910390f35b6103ad60048036038101906103a89190611bd2565b611a89565b6040516103ba9190612350565b60405180910390f35b6103cb611abc565b6040516103d89190612350565b60405180910390f35b6000811180156103f357506001548111155b610432576040517f08c379a0000000000000000000000000000000000000000000000000000000008152600401610429906123b7565b60405180910390fd5b600660003373ffffffffffffffffffffffffffffffffffffffff1673ffffffffffffffffffffffffffffffffffffffff16815260200190815260200160002060000160009054906101000a900460ff166104c1576040517f08c379a00000000000000000000000000000000000000000000000000000000081526004016104b890612423565b60405180910390fd5b600660003373ffffffffffffffffffffffffffffffffffffffff1673ffffffffffffffffffffffffffffffffffffffff16815260200190815260200160002060000160019054906101000a900460ff16158061055e575080600660003373ffffffffffffffffffffffffffffffffffffffff1673ffffffffffffffffffffffffffffffffffffffff16815260200190815260200160002060010154145b61059d576040517f08c379a00000000000000000000000000000000000000000000000000000000081526004016105949061248f565b60405180910390fd5b600660003373ffffffffffffffffffffffffffffffffffffffff1673ffffffffffffffffffffffffffffffffffffffff16815260200190815260200160002060000160019054906101000a900460ff166106f9576001600660003373ffffffffffffffffffffffffffffffffffffffff1673ffffffffffffffffffffffffffffffffffffffff16815260200190815260200160002060000160016101000a81548160ff02191690831515021790555080600660003373ffffffffffffffffffffffffffffffffffffffff1673ffffffffffffffffffffffffffffffffffffffff168152602001908152602001600020600101819055506007600082815260200190815260200160002060020160008154809291906106ba906124de565b91905055507fd0e6c39f2e086dc49f1524b47725526a56945cd1ff661f37976f1725a1e5698633826040516106f0929190612526565b60405180910390a15b50565b60076020528060005260406000206000915090508060000154908060010180546107259061257e565b80601f01602080910402602001604051908101604052809291908181526020018280546107519061257e565b801561079e5780601f106107735761010080835404028352916020019161079e565b820191906000526020600020905b81548152906001019060200180831161078157829003601f168201915b5050505050908060020154908060030154905084565b600560009054906101000a900460ff1681565b60015481565b600060028111156107e1576107e0611cea565b5b600560009054906101000a900460ff16600281111561080357610802611cea565b5b14610843576040517f08c379a000000000000000000000000000000000000000000000000000000000815260040161083a906125fb565b60405180910390fd5b600660003373ffffffffffffffffffffffffffffffffffffffff1673ffffffffffffffffffffffffffffffffffffffff16815260200190815260200160002060000160009054906101000a900460ff166108d2576040517f08c379a00000000000000000000000000000000000000000000000000000000081526004016108c990612423565b60405180910390fd5b600660003373ffffffffffffffffffffffffffffffffffffffff1673ffffffffffffffffffffffffffffffffffffffff16815260200190815260200160002060000160019054906101000a900460ff1615610962576040517f08c379a00000000000000000000000000000000000000000000000000000000081526004016109599061248f565b60405180910390fd5b80600660003373ffffffffffffffffffffffffffffffffffffffff1673ffffffffffffffffffffffffffffffffffffffff168152602001908152602001600020600201819055507fd8333eeb60b5f1fb9e6e2c3c665fb5ec81dee6d37fcd17dda27d169009d6c7eb336040516109d89190612350565b60405180910390a150565b60095481565b6060600060015467ffffffffffffffff811115610a0957610a08611fa4565b5b604051908082528060200260200182016040528015610a4257816020015b610a2f611ae0565b815260200190600190039081610a275790505b5090506000600190505b6001548111610b60576007600082815260200190815260200160002060405180608001604052908160008201548152602001600182018054610a8d9061257e565b80601f0160208091040260200160405190810160405280929190818152602001828054610ab99061257e565b8015610b065780601f10610adb57610100808354040283529160200191610b06565b820191906000526020600020905b815481529060010190602001808311610ae957829003601f168201915b505050505081526020016002820154815260200160038201548152505082600183610b31919061261b565b81518110610b4257610b4161264f565b5b60200260200101819052508080610b58906124de565b915050610a4c565b508091505090565b60008054906101000a900473ffffffffffffffffffffffffffffffffffffffff1673ffffffffffffffffffffffffffffffffffffffff163373ffffffffffffffffffffffffffffffffffffffff1614610bf6576040517f08c379a0000000000000000000000000000000000000000000000000000000008152600401610bed906126f0565b60405180910390fd5b60016000815480929190610c09906124de565b919050555060405180608001604052806001548152602001828152602001600081526020016000815250600760006001548152602001908152602001600020600082015181600001556020820151816001019081610c6791906128bc565b5060408201518160020155606082015181600301559050507f9c770c289ab5bf7e57cb1d23c8ceae993aea46eb64847072fd3d78ca60d3e43260015482604051610cb292919061298e565b60405180910390a150565b60045481565b60025481565b60016002811115610cdd57610cdc611cea565b5b600560009054906101000a900460ff166002811115610cff57610cfe611cea565b5b5050600660003373ffffffffffffffffffffffffffffffffffffffff1673ffffffffffffffffffffffffffffffffffffffff16815260200190815260200160002060000160009054906101000a900460ff16610d90576040517f08c379a0000000000000000000000000000000000000000000000000000000008152600401610d8790612423565b60405180910390fd5b600660003373ffffffffffffffffffffffffffffffffffffffff1673ffffffffffffffffffffffffffffffffffffffff16815260200190815260200160002060000160019054906101000a900460ff1615610e20576040517f08c379a0000000000000000000000000000000000000000000000000000000008152600401610e179061248f565b60405180910390fd5b600660003373ffffffffffffffffffffffffffffffffffffffff1673ffffffffffffffffffffffffffffffffffffffff168152602001908152602001600020600201548282604051602001610e76929190612a1b565b6040516020818303038152906040528051906020012014610ecc576040517f08c379a0000000000000000000000000000000000000000000000000000000008152600401610ec390612a8f565b60405180910390fd5b6001600660003373ffffffffffffffffffffffffffffffffffffffff1673ffffffffffffffffffffffffffffffffffffffff16815260200190815260200160002060000160016101000a81548160ff02191690831515021790555081600660003373ffffffffffffffffffffffffffffffffffffffff1673ffffffffffffffffffffffffffffffffffffffff16815260200190815260200160002060010181905550600760008381526020019081526020016000206002016000815480929190610f95906124de565b9190505550600660003373ffffffffffffffffffffffffffffffffffffffff1673ffffffffffffffffffffffffffffffffffffffff168152602001908152602001600020600301546007600084815260200190815260200160002060030160008282546110029190612aaf565b925050819055507f522b45c661375abb939dc17b4b600412c93af64fcbe24859a73539d01bb4eec8338360405161103a929190612526565b60405180910390a15050565b60008054906101000a900473ffffffffffffffffffffffffffffffffffffffff1673ffffffffffffffffffffffffffffffffffffffff163373ffffffffffffffffffffffffffffffffffffffff16146110d4576040517f08c379a00000000000000000000000000000000000000000000000000000000081526004016110cb906126f0565b60405180910390fd5b6000811180156110e657506001548111155b611125576040517f08c379a000000000000000000000000000000000000000000000000000000000815260040161111c906123b7565b60405180910390fd5b60005b6009548110156112105760006008600083815260200190815260200160002060009054906101000a900473ffffffffffffffffffffffffffffffffffffffff1690506000600660008373ffffffffffffffffffffffffffffffffffffffff1673ffffffffffffffffffffffffffffffffffffffff16815260200190815260200160002090508060000160019054906101000a900460ff1680156111ce5750838160010154145b156111fb5760008160000160016101000a81548160ff021916908315150217905550600081600101819055505b50508080611208906124de565b915050611128565b50600060076000600154815260200190815260200160002090508060076000848152602001908152602001600020600082015481600001556001820181600101908161125c9190612af9565b5060028201548160020155600382015481600301559050506007600060015481526020019081526020016000206000808201600090556001820160006112a29190611b08565b600282016000905560038201600090555050600160008154809291906112c790612be1565b91905055507f61c0d93dc2b610877e420b107c8d12e9185e46e04a505da758cc7f7329ae545f826040516112fb9190611d7c565b60405180910390a15050565b60035481565b60066020528060005260406000206000915090508060000160009054906101000a900460ff16908060000160019054906101000a900460ff16908060010154908060020154908060030154905085565b611365611ae0565b6007600060045481526020019081526020016000206040518060800160405290816000820154815260200160018201805461139f9061257e565b80601f01602080910402602001604051908101604052809291908181526020018280546113cb9061257e565b80156114185780601f106113ed57610100808354040283529160200191611418565b820191906000526020600020905b8154815290600101906020018083116113fb57829003601f168201915b5050505050815260200160028201548152602001600382015481525050905090565b6000808211801561144d57506001548211155b61148c576040517f08c379a0000000000000000000000000000000000000000000000000000000008152600401611483906123b7565b60405180910390fd5b60076000838152602001908152602001600020600201549050919050565b60008054906101000a900473ffffffffffffffffffffffffffffffffffffffff1673ffffffffffffffffffffffffffffffffffffffff163373ffffffffffffffffffffffffffffffffffffffff1614611538576040517f08c379a000000000000000000000000000000000000000000000000000000000815260040161152f906126f0565b60405180910390fd5b6002600560006101000a81548160ff0219169083600281111561155e5761155d611cea565b5b02179055506003544210156115a8576040517f08c379a000000000000000000000000000000000000000000000000000000000815260040161159f90612c7c565b60405180910390fd5b60008060006115b5611b48565b600080600190505b600154811161167f5784600760008381526020019081526020016000206002015411156116225760076000828152602001908152602001600020600201549450809550600760008281526020019081526020016000206003015493506000915061166c565b8460076000838152602001908152602001600020600201540361166b57808383606481106116535761165261264f565b5b6020020181815250508180611667906124de565b9250505b5b8080611677906124de565b9150506115bd565b50600181106117005760005b818110156116fe5760008382606481106116a8576116a761264f565b5b6020020151905084600760008381526020019081526020016000206003015411156116ea57600760008281526020019081526020016000206003015494508096505b5080806116f6906124de565b91505061168b565b505b7fcea89ec8feb1022162fb57e69a2bb2c4774289bcc281c3e4ff611d3a63ee6e0885858560405161173393929190612c9c565b60405180910390a1846004819055505050505050565b60008054906101000a900473ffffffffffffffffffffffffffffffffffffffff1673ffffffffffffffffffffffffffffffffffffffff163373ffffffffffffffffffffffffffffffffffffffff16146117d7576040517f08c379a00000000000000000000000000000000000000000000000000000000081526004016117ce906126f0565b60405180910390fd5b600660008373ffffffffffffffffffffffffffffffffffffffff1673ffffffffffffffffffffffffffffffffffffffff16815260200190815260200160002060000160009054906101000a900460ff1615611867576040517f08c379a000000000000000000000000000000000000000000000000000000000815260040161185e90612d1f565b60405180910390fd5b3373ffffffffffffffffffffffffffffffffffffffff16318111156118c1576040517f08c379a00000000000000000000000000000000000000000000000000000000081526004016118b890612d8b565b60405180910390fd5b6040518060a00160405280600115158152602001600015158152602001600081526020016000801916815260200182815250600660008473ffffffffffffffffffffffffffffffffffffffff1673ffffffffffffffffffffffffffffffffffffffff16815260200190815260200160002060008201518160000160006101000a81548160ff02191690831515021790555060208201518160000160016101000a81548160ff0219169083151502179055506040820151816001015560608201518160020155608082015181600301559050508160086000600954815260200190815260200160002060006101000a81548173ffffffffffffffffffffffffffffffffffffffff021916908373ffffffffffffffffffffffffffffffffffffffff160217905550600960008154809291906119fa906124de565b91905055507fb6be2187d059cc2a55fe29e0e503b566e1e0f8c8780096e185429350acffd3dd82604051611a2e9190612350565b60405180910390a1600560095403611a805760025442611a4e9190612aaf565b6003819055506000600560006101000a81548160ff02191690836002811115611a7a57611a79611cea565b5b02179055505b5050565b600581565b60086020528060005260406000206000915054906101000a900473ffffffffffffffffffffffffffffffffffffffff1681565b60008054906101000a900473ffffffffffffffffffffffffffffffffffffffff1681565b6040518060800160405280600081526020016060815260200160008152602001600081525090565b508054611b149061257e565b6000825580601f10611b265750611b45565b601f016020900490600052602060002090810190611b449190611b6b565b5b50565b60405180610c800160405280606490602082028036833780820191505090505090565b5b80821115611b84576000816000905550600101611b6c565b5090565b6000604051905090565b600080fd5b600080fd5b6000819050919050565b611baf81611b9c565b8114611bba57600080fd5b50565b600081359050611bcc81611ba6565b92915050565b600060208284031215611be857611be7611b92565b5b6000611bf684828501611bbd565b91505092915050565b611c0881611b9c565b82525050565b600081519050919050565b600082825260208201905092915050565b60005b83811015611c48578082015181840152602081019050611c2d565b60008484015250505050565b6000601f19601f8301169050919050565b6000611c7082611c0e565b611c7a8185611c19565b9350611c8a818560208601611c2a565b611c9381611c54565b840191505092915050565b6000608082019050611cb36000830187611bff565b8181036020830152611cc58186611c65565b9050611cd46040830185611bff565b611ce16060830184611bff565b95945050505050565b7f4e487b7100000000000000000000000000000000000000000000000000000000600052602160045260246000fd5b60038110611d2a57611d29611cea565b5b50565b6000819050611d3b82611d19565b919050565b6000611d4b82611d2d565b9050919050565b611d5b81611d40565b82525050565b6000602082019050611d766000830184611d52565b92915050565b6000602082019050611d916000830184611bff565b92915050565b6000819050919050565b611daa81611d97565b8114611db557600080fd5b50565b600081359050611dc781611da1565b92915050565b600060208284031215611de357611de2611b92565b5b6000611df184828501611db8565b91505092915050565b600081519050919050565b600082825260208201905092915050565b6000819050602082019050919050565b611e2f81611b9c565b82525050565b600082825260208201905092915050565b6000611e5182611c0e565b611e5b8185611e35565b9350611e6b818560208601611c2a565b611e7481611c54565b840191505092915050565b6000608083016000830151611e976000860182611e26565b5060208301518482036020860152611eaf8282611e46565b9150506040830151611ec46040860182611e26565b506060830151611ed76060860182611e26565b508091505092915050565b6000611eee8383611e7f565b905092915050565b6000602082019050919050565b6000611f0e82611dfa565b611f188185611e05565b935083602082028501611f2a85611e16565b8060005b85811015611f665784840389528151611f478582611ee2565b9450611f5283611ef6565b925060208a01995050600181019050611f2e565b50829750879550505050505092915050565b60006020820190508181036000830152611f928184611f03565b905092915050565b600080fd5b600080fd5b7f4e487b7100000000000000000000000000000000000000000000000000000000600052604160045260246000fd5b611fdc82611c54565b810181811067ffffffffffffffff82111715611ffb57611ffa611fa4565b5b80604052505050565b600061200e611b88565b905061201a8282611fd3565b919050565b600067ffffffffffffffff82111561203a57612039611fa4565b5b61204382611c54565b9050602081019050919050565b82818337600083830152505050565b600061207261206d8461201f565b612004565b90508281526020810184848401111561208e5761208d611f9f565b5b612099848285612050565b509392505050565b600082601f8301126120b6576120b5611f9a565b5b81356120c684826020860161205f565b91505092915050565b6000602082840312156120e5576120e4611b92565b5b600082013567ffffffffffffffff81111561210357612102611b97565b5b61210f848285016120a1565b91505092915050565b6000806040838503121561212f5761212e611b92565b5b600061213d85828601611bbd565b925050602083013567ffffffffffffffff81111561215e5761215d611b97565b5b61216a858286016120a1565b9150509250929050565b600073ffffffffffffffffffffffffffffffffffffffff82169050919050565b600061219f82612174565b9050919050565b6121af81612194565b81146121ba57600080fd5b50565b6000813590506121cc816121a6565b92915050565b6000602082840312156121e8576121e7611b92565b5b60006121f6848285016121bd565b91505092915050565b60008115159050919050565b612214816121ff565b82525050565b61222381611d97565b82525050565b600060a08201905061223e600083018861220b565b61224b602083018761220b565b6122586040830186611bff565b612265606083018561221a565b6122726080830184611bff565b9695505050505050565b60006080830160008301516122946000860182611e26565b50602083015184820360208601526122ac8282611e46565b91505060408301516122c16040860182611e26565b5060608301516122d46060860182611e26565b508091505092915050565b600060208201905081810360008301526122f9818461227c565b905092915050565b6000806040838503121561231857612317611b92565b5b6000612326858286016121bd565b925050602061233785828601611bbd565b9150509250929050565b61234a81612194565b82525050565b60006020820190506123656000830184612341565b92915050565b7f496e76616c69642070726f706f73616c20494400000000000000000000000000600082015250565b60006123a1601383611c19565b91506123ac8261236b565b602082019050919050565b600060208201905081810360008301526123d081612394565b9050919050565b7f566f746572206973206e6f742072656769737465726564000000000000000000600082015250565b600061240d601783611c19565b9150612418826123d7565b602082019050919050565b6000602082019050818103600083015261243c81612400565b9050919050565b7f566f7465722068617320616c726561647920766f746564000000000000000000600082015250565b6000612479601783611c19565b915061248482612443565b602082019050919050565b600060208201905081810360008301526124a88161246c565b9050919050565b7f4e487b7100000000000000000000000000000000000000000000000000000000600052601160045260246000fd5b60006124e982611b9c565b91507fffffffffffffffffffffffffffffffffffffffffffffffffffffffffffffffff820361251b5761251a6124af565b5b600182019050919050565b600060408201905061253b6000830185612341565b6125486020830184611bff565b9392505050565b7f4e487b7100000000000000000000000000000000000000000000000000000000600052602260045260246000fd5b6000600282049050600182168061259657607f821691505b6020821081036125a9576125a861254f565b5b50919050565b7f4e6f7420696e20636f6d6d697420706861736500000000000000000000000000600082015250565b60006125e5601383611c19565b91506125f0826125af565b602082019050919050565b60006020820190508181036000830152612614816125d8565b9050919050565b600061262682611b9c565b915061263183611b9c565b9250828203905081811115612649576126486124af565b5b92915050565b7f4e487b7100000000000000000000000000000000000000000000000000000000600052603260045260246000fd5b7f4f6e6c792061646d696e2063616e20706572666f726d2074686973206163746960008201527f6f6e000000000000000000000000000000000000000000000000000000000000602082015250565b60006126da602283611c19565b91506126e58261267e565b604082019050919050565b60006020820190508181036000830152612709816126cd565b9050919050565b60008190508160005260206000209050919050565b60006020601f8301049050919050565b600082821b905092915050565b6000600883026127727fffffffffffffffffffffffffffffffffffffffffffffffffffffffffffffffff82612735565b61277c8683612735565b95508019841693508086168417925050509392505050565b6000819050919050565b60006127b96127b46127af84611b9c565b612794565b611b9c565b9050919050565b6000819050919050565b6127d38361279e565b6127e76127df826127c0565b848454612742565b825550505050565b600090565b6127fc6127ef565b6128078184846127ca565b505050565b5b8181101561282b576128206000826127f4565b60018101905061280d565b5050565b601f8211156128705761284181612710565b61284a84612725565b81016020851015612859578190505b61286d61286585612725565b83018261280c565b50505b505050565b600082821c905092915050565b600061289360001984600802612875565b1980831691505092915050565b60006128ac8383612882565b9150826002028217905092915050565b6128c582611c0e565b67ffffffffffffffff8111156128de576128dd611fa4565b5b6128e8825461257e565b6128f382828561282f565b600060209050601f8311600181146129265760008415612914578287015190505b61291e85826128a0565b865550612986565b601f19841661293486612710565b60005b8281101561295c57848901518255600182019150602085019450602081019050612937565b868310156129795784890151612975601f891682612882565b8355505b6001600288020188555050505b505050505050565b60006040820190506129a36000830185611bff565b81810360208301526129b58184611c65565b90509392505050565b6000819050919050565b6129d96129d482611b9c565b6129be565b82525050565b600081905092915050565b60006129f582611c0e565b6129ff81856129df565b9350612a0f818560208601611c2a565b80840191505092915050565b6000612a2782856129c8565b602082019150612a3782846129ea565b91508190509392505050565b7f566f746520646f65736e2774206d6174636820636f6d6d697400000000000000600082015250565b6000612a79601983611c19565b9150612a8482612a43565b602082019050919050565b60006020820190508181036000830152612aa881612a6c565b9050919050565b6000612aba82611b9c565b9150612ac583611b9c565b9250828201905080821115612add57612adc6124af565b5b92915050565b600081549050612af28161257e565b9050919050565b818103612b07575050612bdf565b612b1082612ae3565b67ffffffffffffffff811115612b2957612b28611fa4565b5b612b33825461257e565b612b3e82828561282f565b6000601f831160018114612b6d5760008415612b5b578287015490505b612b6585826128a0565b865550612bd8565b601f198416612b7b87612710565b9650612b8686612710565b60005b82811015612bae57848901548255600182019150600185019450602081019050612b89565b86831015612bcb5784890154612bc7601f891682612882565b8355505b6001600288020188555050505b5050505050505b565b6000612bec82611b9c565b915060008203612bff57612bfe6124af565b5b600182039050919050565b7f566f74696e6720726573756c742074696d6520686173206e6f74206265656e2060008201527f7265616368656400000000000000000000000000000000000000000000000000602082015250565b6000612c66602783611c19565b9150612c7182612c0a565b604082019050919050565b60006020820190508181036000830152612c9581612c59565b9050919050565b6000606082019050612cb16000830186611bff565b612cbe6020830185611bff565b612ccb6040830184611bff565b949350505050565b7f566f74657220697320616c726561647920726567697374657265640000000000600082015250565b6000612d09601b83611c19565b9150612d1482612cd3565b602082019050919050565b60006020820190508181036000830152612d3881612cfc565b9050919050565b7f496e73756666696369656e742062616c616e6365000000000000000000000000600082015250565b6000612d75601483611c19565b9150612d8082612d3f565b602082019050919050565b60006020820190508181036000830152612da481612d68565b905091905056fea2646970667358221220a72fd4a41b383009f3b7f0cb46c0c9ee84eb41f2a1f17dc11f6ea3b780c8bb8064736f6c63430008130033",
  "immutableReferences": {},
  "source": "pragma solidity ^0.8.0;\n\ncontract VotingSystem {\n    // State variables\n    address public admin;\n    uint256 public proposalsCount;\n    uint256 public constant maxVoters = 5;\n    uint256 public resultDelay = 2 minutes;\n    uint256 public resultTime;\n    uint256 public winningProposal;\n\n    enum VotingPhase {Commit, Reveal, End}\n\n    VotingPhase public currentPhase;\n\n    struct Voter {\n        bool isRegistered;\n        bool hasVoted;\n        uint256 voteIndex;\n        bytes32 voteCommit;\n        uint256 stake;\n    }\n\n    struct Proposal {\n        uint256 id;\n        string description;\n        uint256 voteCount;\n        uint256 totalStake;\n    }\n\n    mapping(address => Voter) public voters;\n    mapping(uint256 => Proposal) public proposals;\n\n    mapping(uint256 => address) public voterAddresses;\n    uint256 public voterCount;\n\n\n    // Events\n    event VoterRegistered(address voterAddress);\n    event ProposalCreated(uint256 proposalId, string description);\n    event VoteCommitted(address voter);\n    event VoteCasted(address voter, uint256 proposalId);\n    event VoteRevealed(address voter, uint256 proposalId);\n    event ProposalDeleted(uint256 proposalId);\n    event VotingEnded(uint256 winningProposalId, uint256 winningVoteCount, uint256 winningStake);\n\n    // Constructor\n    constructor() {\n        admin = msg.sender;\n        currentPhase = VotingPhase.Commit;\n    }\n\n    // Modifier\n    modifier onlyAdmin() {\n        require(msg.sender == admin, \"Only admin can perform this action\");\n        _;\n    }\n\n    // Functions\n\n    function registerVoter(address _voterAddress, uint256 _stake) public onlyAdmin {\n        require(!voters[_voterAddress].isRegistered, \"Voter is already registered\");\n        require(_stake <= msg.sender.balance, \"Insufficient balance\");\n\n        voters[_voterAddress] = Voter(true, false, 0, \"\", _stake);\n        voterAddresses[voterCount] = _voterAddress;\n        voterCount++;\n\n        emit VoterRegistered(_voterAddress);\n\n        if (voterCount == maxVoters) {\n            resultTime = block.timestamp + resultDelay;\n            currentPhase = VotingPhase.Commit;\n        }\n    }\n\n    function getWinningProposal() public view returns (Proposal memory) {\n        return proposals[winningProposal];\n    }\n\n\n    function createProposal(string memory _description) public onlyAdmin {\n        proposalsCount++;\n        proposals[proposalsCount] = Proposal(proposalsCount, _description, 0, 0);\n\n        emit ProposalCreated(proposalsCount, _description);\n    }\n\n    function commitVote(bytes32 _voteCommit) public {\n        require(currentPhase == VotingPhase.Commit, \"Not in commit phase\");\n        require(voters[msg.sender].isRegistered, \"Voter is not registered\");\n        require(!voters[msg.sender].hasVoted, \"Voter has already voted\");\n\n        voters[msg.sender].voteCommit = _voteCommit;\n        emit VoteCommitted(msg.sender);\n    }\n\n    function revealVote(uint256 _proposalId, string memory _secret) public {\n        currentPhase == VotingPhase.Reveal;\n        require(voters[msg.sender].isRegistered, \"Voter is not registered\");\n        require(!voters[msg.sender].hasVoted, \"Voter has already voted\");\n\n        // Check if committed hash matches the revealed vote\n        require(keccak256(abi.encodePacked(_proposalId, _secret)) == voters[msg.sender].voteCommit, \"Vote doesn't match commit\");\n\n        voters[msg.sender].hasVoted = true;\n        voters[msg.sender].voteIndex = _proposalId;\n        proposals[_proposalId].voteCount++;\n        proposals[_proposalId].totalStake += voters[msg.sender].stake;\n\n        emit VoteRevealed(msg.sender, _proposalId);\n    }\n\n\n    function deleteProposal(uint256 _proposalId) public onlyAdmin {\n        require(_proposalId > 0 && _proposalId <= proposalsCount, \"Invalid proposal ID\");\n\n    // Reset the voting power of voters who have voted for the deleted proposal\n    for (uint256 i = 0; i < voterCount; i++) {\n        address voterAddress = voterAddresses[i];\n        Voter storage voter = voters[voterAddress];\n        if (voter.hasVoted && voter.voteIndex == _proposalId) {\n            voter.hasVoted = false;\n            voter.voteIndex = 0;\n        }\n    }\n\n        Proposal storage lastProposal = proposals[proposalsCount];\n        proposals[_proposalId] = lastProposal;\n        delete proposals[proposalsCount];\n        proposalsCount--;\n\n        emit ProposalDeleted(_proposalId);\n    }\n\n    function vote(uint256 _proposalId) public {\n        require(_proposalId > 0 && _proposalId <= proposalsCount, \"Invalid proposal ID\");\n    require(voters[msg.sender].isRegistered, \"Voter is not registered\");\n    require(!voters[msg.sender].hasVoted || voters[msg.sender].voteIndex == _proposalId, \"Voter has already voted\");\n\n    if (!voters[msg.sender].hasVoted) {\n        voters[msg.sender].hasVoted = true;\n        voters[msg.sender].voteIndex = _proposalId;\n        proposals[_proposalId].voteCount++;\n        emit VoteCasted(msg.sender, _proposalId);\n    }\n    }\n\n    function getResults() public view returns (Proposal[] memory) {\n        Proposal[] memory results = new Proposal[](proposalsCount);\n\n        for (uint256 i = 1; i <= proposalsCount; i++) {\n            results[i - 1] = proposals[i];\n        }\n\n        return results;\n    }\n\n    function getVoteCount(uint256 _proposalId) public view returns (uint256) {\n    require(_proposalId > 0 && _proposalId <= proposalsCount, \"Invalid proposal ID\");\n\n    return proposals[_proposalId].voteCount;\n    }\n\n\n    function endVoting() public onlyAdmin {\n        currentPhase = VotingPhase.End;\n        require(block.timestamp >= resultTime, \"Voting result time has not been reached\");\n\n\n        uint256 winningProposalId = 0;\n        uint256 winningVoteCount = 0;\n        uint256 winningStake = 0;\n\n        // Store tied proposals\n        uint256[100] memory tiedProposals;\n        uint256 tiedProposalsCount = 0;\n\n        for (uint256 i = 1; i <= proposalsCount; i++) {\n            if (proposals[i].voteCount > winningVoteCount) {\n                winningVoteCount = proposals[i].voteCount;\n                winningProposalId = i;\n                winningStake = proposals[i].totalStake;\n\n                // Reset tied proposals count\n                tiedProposalsCount = 0;\n            } else if (proposals[i].voteCount == winningVoteCount) {\n                // If we have a tie, add the proposal to the tiedProposals array\n                tiedProposals[tiedProposalsCount] = i;\n                tiedProposalsCount++;\n            }\n        }\n\n        // If we have more than one proposal with the same vote count, we need to check the stake\n        if (tiedProposalsCount >= 1) {\n            for (uint256 i = 0; i < tiedProposalsCount; i++) {\n                uint256 proposalId = tiedProposals[i];\n                if (proposals[proposalId].totalStake > winningStake) {\n                    winningStake = proposals[proposalId].totalStake;\n                    winningProposalId = proposalId;\n                }\n            }\n        }\n\n\n        emit VotingEnded(winningProposalId, winningVoteCount, winningStake);\n        winningProposal = winningProposalId;\n    }\n\n}\n",
  "sourcePath": "/Users/abiks/Desktop/evoting_dapp_blockchain/contracts/VotingSystem.sol",
  "compiler": {
    "name": "solc",
    "version": "0.8.19+commit.7dd6d404.Emscripten.clang"
  },
  "schemaVersion": "3.4.13",
  "updatedAt": "2023-05-15T06:55:29.225Z",
  "networkType": "ethereum",
  "devdoc": {
    "kind": "dev",
    "methods": {},
    "version": 1
  },
  "userdoc": {
    "kind": "user",
    "methods": {},
    "version": 1
  }
}