{
  "contractName": "VotingSystem",
  "abi": [
    {
      "inputs": [],
      "stateMutability": "nonpayable",
      "type": "constructor"
    },
    {
      "anonymous": false,
      "inputs": [
        {
          "indexed": false,
          "internalType": "uint256",
          "name": "proposalId",
          "type": "uint256"
        },
        {
          "indexed": false,
          "internalType": "string",
          "name": "description",
          "type": "string"
        }
      ],
      "name": "ProposalCreated",
      "type": "event"
    },
    {
      "anonymous": false,
      "inputs": [
        {
          "indexed": false,
          "internalType": "uint256",
          "name": "proposalId",
          "type": "uint256"
        }
      ],
      "name": "ProposalDeleted",
      "type": "event"
    },
    {
      "anonymous": false,
      "inputs": [
        {
          "indexed": false,
          "internalType": "address",
          "name": "voter",
          "type": "address"
        },
        {
          "indexed": false,
          "internalType": "uint256",
          "name": "proposalId",
          "type": "uint256"
        }
      ],
      "name": "VoteCasted",
      "type": "event"
    },
    {
      "anonymous": false,
      "inputs": [
        {
          "indexed": false,
          "internalType": "address",
          "name": "voterAddress",
          "type": "address"
        }
      ],
      "name": "VoterRegistered",
      "type": "event"
    },
    {
      "inputs": [],
      "name": "admin",
      "outputs": [
        {
          "internalType": "address",
          "name": "",
          "type": "address"
        }
      ],
      "stateMutability": "view",
      "type": "function",
      "constant": true
    },
    {
      "inputs": [
        {
          "internalType": "uint256",
          "name": "",
          "type": "uint256"
        }
      ],
      "name": "proposals",
      "outputs": [
        {
          "internalType": "uint256",
          "name": "id",
          "type": "uint256"
        },
        {
          "internalType": "string",
          "name": "description",
          "type": "string"
        },
        {
          "internalType": "uint256",
          "name": "voteCount",
          "type": "uint256"
        }
      ],
      "stateMutability": "view",
      "type": "function",
      "constant": true
    },
    {
      "inputs": [],
      "name": "proposalsCount",
      "outputs": [
        {
          "internalType": "uint256",
          "name": "",
          "type": "uint256"
        }
      ],
      "stateMutability": "view",
      "type": "function",
      "constant": true
    },
    {
      "inputs": [
        {
          "internalType": "uint256",
          "name": "",
          "type": "uint256"
        }
      ],
      "name": "voterAddresses",
      "outputs": [
        {
          "internalType": "address",
          "name": "",
          "type": "address"
        }
      ],
      "stateMutability": "view",
      "type": "function",
      "constant": true
    },
    {
      "inputs": [],
      "name": "voterCount",
      "outputs": [
        {
          "internalType": "uint256",
          "name": "",
          "type": "uint256"
        }
      ],
      "stateMutability": "view",
      "type": "function",
      "constant": true
    },
    {
      "inputs": [
        {
          "internalType": "address",
          "name": "",
          "type": "address"
        }
      ],
      "name": "voters",
      "outputs": [
        {
          "internalType": "bool",
          "name": "isRegistered",
          "type": "bool"
        },
        {
          "internalType": "bool",
          "name": "hasVoted",
          "type": "bool"
        },
        {
          "internalType": "uint256",
          "name": "voteIndex",
          "type": "uint256"
        }
      ],
      "stateMutability": "view",
      "type": "function",
      "constant": true
    },
    {
      "inputs": [
        {
          "internalType": "address",
          "name": "_voterAddress",
          "type": "address"
        }
      ],
      "name": "registerVoter",
      "outputs": [],
      "stateMutability": "nonpayable",
      "type": "function"
    },
    {
      "inputs": [
        {
          "internalType": "string",
          "name": "_description",
          "type": "string"
        }
      ],
      "name": "createProposal",
      "outputs": [],
      "stateMutability": "nonpayable",
      "type": "function"
    },
    {
      "inputs": [
        {
          "internalType": "uint256",
          "name": "_proposalId",
          "type": "uint256"
        }
      ],
      "name": "deleteProposal",
      "outputs": [],
      "stateMutability": "nonpayable",
      "type": "function"
    },
    {
      "inputs": [
        {
          "internalType": "uint256",
          "name": "_proposalId",
          "type": "uint256"
        }
      ],
      "name": "vote",
      "outputs": [],
      "stateMutability": "nonpayable",
      "type": "function"
    },
    {
      "inputs": [],
      "name": "getResults",
      "outputs": [
        {
          "components": [
            {
              "internalType": "uint256",
              "name": "id",
              "type": "uint256"
            },
            {
              "internalType": "string",
              "name": "description",
              "type": "string"
            },
            {
              "internalType": "uint256",
              "name": "voteCount",
              "type": "uint256"
            }
          ],
          "internalType": "struct VotingSystem.Proposal[]",
          "name": "",
          "type": "tuple[]"
        }
      ],
      "stateMutability": "view",
      "type": "function",
      "constant": true
    }
  ],
  "bytecode": "0x608060405234801561001057600080fd5b50336000806101000a81548173ffffffffffffffffffffffffffffffffffffffff021916908373ffffffffffffffffffffffffffffffffffffffff160217905550611c27806100606000396000f3fe608060405234801561001057600080fd5b50600436106100a95760003560e01c80634717f97c116100715780634717f97c1461015457806349c2a1a6146101725780638259d5531461018e578063a3ec138d146101aa578063dd0e2373146101dc578063f851a4401461020c576100a9565b80630121b93f146100ae578063013cf08b146100ca5780630a9f46ad146100fc57806338db6dd31461011a57806342169e4814610136575b600080fd5b6100c860048036038101906100c39190610f40565b61022a565b005b6100e460048036038101906100df9190610f40565b610545565b6040516100f39392919061100c565b60405180910390f35b6101046105f7565b604051610111919061104a565b60405180910390f35b610134600480360381019061012f91906110c3565b6105fd565b005b61013e61086f565b60405161014b919061104a565b60405180910390f35b61015c610875565b604051610169919061125b565b60405180910390f35b61018c600480360381019061018791906113b2565b6109ea565b005b6101a860048036038101906101a39190610f40565b610b2e565b005b6101c460048036038101906101bf91906110c3565b610ddd565b6040516101d393929190611416565b60405180910390f35b6101f660048036038101906101f19190610f40565b610e21565b604051610203919061145c565b60405180910390f35b610214610e54565b604051610221919061145c565b60405180910390f35b60008111801561023c57506001548111155b61027b576040517f08c379a0000000000000000000000000000000000000000000000000000000008152600401610272906114c3565b60405180910390fd5b600260003373ffffffffffffffffffffffffffffffffffffffff1673ffffffffffffffffffffffffffffffffffffffff16815260200190815260200160002060000160009054906101000a900460ff1661030a576040517f08c379a00000000000000000000000000000000000000000000000000000000081526004016103019061152f565b60405180910390fd5b600260003373ffffffffffffffffffffffffffffffffffffffff1673ffffffffffffffffffffffffffffffffffffffff16815260200190815260200160002060000160019054906101000a900460ff1615806103a7575080600260003373ffffffffffffffffffffffffffffffffffffffff1673ffffffffffffffffffffffffffffffffffffffff16815260200190815260200160002060010154145b6103e6576040517f08c379a00000000000000000000000000000000000000000000000000000000081526004016103dd9061159b565b60405180910390fd5b600260003373ffffffffffffffffffffffffffffffffffffffff1673ffffffffffffffffffffffffffffffffffffffff16815260200190815260200160002060000160019054906101000a900460ff16610542576001600260003373ffffffffffffffffffffffffffffffffffffffff1673ffffffffffffffffffffffffffffffffffffffff16815260200190815260200160002060000160016101000a81548160ff02191690831515021790555080600260003373ffffffffffffffffffffffffffffffffffffffff1673ffffffffffffffffffffffffffffffffffffffff16815260200190815260200160002060010181905550600360008281526020019081526020016000206002016000815480929190610503906115ea565b91905055507fd0e6c39f2e086dc49f1524b47725526a56945cd1ff661f37976f1725a1e569863382604051610539929190611632565b60405180910390a15b50565b600360205280600052604060002060009150905080600001549080600101805461056e9061168a565b80601f016020809104026020016040519081016040528092919081815260200182805461059a9061168a565b80156105e75780601f106105bc576101008083540402835291602001916105e7565b820191906000526020600020905b8154815290600101906020018083116105ca57829003601f168201915b5050505050908060020154905083565b60015481565b60008054906101000a900473ffffffffffffffffffffffffffffffffffffffff1673ffffffffffffffffffffffffffffffffffffffff163373ffffffffffffffffffffffffffffffffffffffff161461068b576040517f08c379a00000000000000000000000000000000000000000000000000000000081526004016106829061172d565b60405180910390fd5b600260008273ffffffffffffffffffffffffffffffffffffffff1673ffffffffffffffffffffffffffffffffffffffff16815260200190815260200160002060000160009054906101000a900460ff161561071b576040517f08c379a000000000000000000000000000000000000000000000000000000000815260040161071290611799565b60405180910390fd5b60405180606001604052806001151581526020016000151581526020016000815250600260008373ffffffffffffffffffffffffffffffffffffffff1673ffffffffffffffffffffffffffffffffffffffff16815260200190815260200160002060008201518160000160006101000a81548160ff02191690831515021790555060208201518160000160016101000a81548160ff021916908315150217905550604082015181600101559050508060046000600554815260200190815260200160002060006101000a81548173ffffffffffffffffffffffffffffffffffffffff021916908373ffffffffffffffffffffffffffffffffffffffff16021790555060056000815480929190610830906115ea565b91905055507fb6be2187d059cc2a55fe29e0e503b566e1e0f8c8780096e185429350acffd3dd81604051610864919061145c565b60405180910390a150565b60055481565b6060600060015467ffffffffffffffff81111561089557610894611287565b5b6040519080825280602002602001820160405280156108ce57816020015b6108bb610e78565b8152602001906001900390816108b35790505b5090506000600190505b60015481116109e25760036000828152602001908152602001600020604051806060016040529081600082015481526020016001820180546109199061168a565b80601f01602080910402602001604051908101604052809291908181526020018280546109459061168a565b80156109925780601f1061096757610100808354040283529160200191610992565b820191906000526020600020905b81548152906001019060200180831161097557829003601f168201915b50505050508152602001600282015481525050826001836109b391906117b9565b815181106109c4576109c36117ed565b5b602002602001018190525080806109da906115ea565b9150506108d8565b508091505090565b60008054906101000a900473ffffffffffffffffffffffffffffffffffffffff1673ffffffffffffffffffffffffffffffffffffffff163373ffffffffffffffffffffffffffffffffffffffff1614610a78576040517f08c379a0000000000000000000000000000000000000000000000000000000008152600401610a6f9061172d565b60405180910390fd5b60016000815480929190610a8b906115ea565b9190505550604051806060016040528060015481526020018281526020016000815250600360006001548152602001908152602001600020600082015181600001556020820151816001019081610ae291906119c8565b50604082015181600201559050507f9c770c289ab5bf7e57cb1d23c8ceae993aea46eb64847072fd3d78ca60d3e43260015482604051610b23929190611a9a565b60405180910390a150565b60008054906101000a900473ffffffffffffffffffffffffffffffffffffffff1673ffffffffffffffffffffffffffffffffffffffff163373ffffffffffffffffffffffffffffffffffffffff1614610bbc576040517f08c379a0000000000000000000000000000000000000000000000000000000008152600401610bb39061172d565b60405180910390fd5b600081118015610bce57506001548111155b610c0d576040517f08c379a0000000000000000000000000000000000000000000000000000000008152600401610c04906114c3565b60405180910390fd5b60005b600554811015610cf85760006004600083815260200190815260200160002060009054906101000a900473ffffffffffffffffffffffffffffffffffffffff1690506000600260008373ffffffffffffffffffffffffffffffffffffffff1673ffffffffffffffffffffffffffffffffffffffff16815260200190815260200160002090508060000160019054906101000a900460ff168015610cb65750838160010154145b15610ce35760008160000160016101000a81548160ff021916908315150217905550600081600101819055505b50508080610cf0906115ea565b915050610c10565b506000600360006001548152602001908152602001600020905080600360008481526020019081526020016000206000820154816000015560018201816001019081610d449190611ae0565b5060028201548160020155905050600360006001548152602001908152602001600020600080820160009055600182016000610d809190610e99565b6002820160009055505060016000815480929190610d9d90611bc8565b91905055507f61c0d93dc2b610877e420b107c8d12e9185e46e04a505da758cc7f7329ae545f82604051610dd1919061104a565b60405180910390a15050565b60026020528060005260406000206000915090508060000160009054906101000a900460ff16908060000160019054906101000a900460ff16908060010154905083565b60046020528060005260406000206000915054906101000a900473ffffffffffffffffffffffffffffffffffffffff1681565b60008054906101000a900473ffffffffffffffffffffffffffffffffffffffff1681565b60405180606001604052806000815260200160608152602001600081525090565b508054610ea59061168a565b6000825580601f10610eb75750610ed6565b601f016020900490600052602060002090810190610ed59190610ed9565b5b50565b5b80821115610ef2576000816000905550600101610eda565b5090565b6000604051905090565b600080fd5b600080fd5b6000819050919050565b610f1d81610f0a565b8114610f2857600080fd5b50565b600081359050610f3a81610f14565b92915050565b600060208284031215610f5657610f55610f00565b5b6000610f6484828501610f2b565b91505092915050565b610f7681610f0a565b82525050565b600081519050919050565b600082825260208201905092915050565b60005b83811015610fb6578082015181840152602081019050610f9b565b60008484015250505050565b6000601f19601f8301169050919050565b6000610fde82610f7c565b610fe88185610f87565b9350610ff8818560208601610f98565b61100181610fc2565b840191505092915050565b60006060820190506110216000830186610f6d565b81810360208301526110338185610fd3565b90506110426040830184610f6d565b949350505050565b600060208201905061105f6000830184610f6d565b92915050565b600073ffffffffffffffffffffffffffffffffffffffff82169050919050565b600061109082611065565b9050919050565b6110a081611085565b81146110ab57600080fd5b50565b6000813590506110bd81611097565b92915050565b6000602082840312156110d9576110d8610f00565b5b60006110e7848285016110ae565b91505092915050565b600081519050919050565b600082825260208201905092915050565b6000819050602082019050919050565b61112581610f0a565b82525050565b600082825260208201905092915050565b600061114782610f7c565b611151818561112b565b9350611161818560208601610f98565b61116a81610fc2565b840191505092915050565b600060608301600083015161118d600086018261111c565b50602083015184820360208601526111a5828261113c565b91505060408301516111ba604086018261111c565b508091505092915050565b60006111d18383611175565b905092915050565b6000602082019050919050565b60006111f1826110f0565b6111fb81856110fb565b93508360208202850161120d8561110c565b8060005b85811015611249578484038952815161122a85826111c5565b9450611235836111d9565b925060208a01995050600181019050611211565b50829750879550505050505092915050565b6000602082019050818103600083015261127581846111e6565b905092915050565b600080fd5b600080fd5b7f4e487b7100000000000000000000000000000000000000000000000000000000600052604160045260246000fd5b6112bf82610fc2565b810181811067ffffffffffffffff821117156112de576112dd611287565b5b80604052505050565b60006112f1610ef6565b90506112fd82826112b6565b919050565b600067ffffffffffffffff82111561131d5761131c611287565b5b61132682610fc2565b9050602081019050919050565b82818337600083830152505050565b600061135561135084611302565b6112e7565b90508281526020810184848401111561137157611370611282565b5b61137c848285611333565b509392505050565b600082601f8301126113995761139861127d565b5b81356113a9848260208601611342565b91505092915050565b6000602082840312156113c8576113c7610f00565b5b600082013567ffffffffffffffff8111156113e6576113e5610f05565b5b6113f284828501611384565b91505092915050565b60008115159050919050565b611410816113fb565b82525050565b600060608201905061142b6000830186611407565b6114386020830185611407565b6114456040830184610f6d565b949350505050565b61145681611085565b82525050565b6000602082019050611471600083018461144d565b92915050565b7f496e76616c69642070726f706f73616c20494400000000000000000000000000600082015250565b60006114ad601383610f87565b91506114b882611477565b602082019050919050565b600060208201905081810360008301526114dc816114a0565b9050919050565b7f566f746572206973206e6f742072656769737465726564000000000000000000600082015250565b6000611519601783610f87565b9150611524826114e3565b602082019050919050565b600060208201905081810360008301526115488161150c565b9050919050565b7f566f7465722068617320616c726561647920766f746564000000000000000000600082015250565b6000611585601783610f87565b91506115908261154f565b602082019050919050565b600060208201905081810360008301526115b481611578565b9050919050565b7f4e487b7100000000000000000000000000000000000000000000000000000000600052601160045260246000fd5b60006115f582610f0a565b91507fffffffffffffffffffffffffffffffffffffffffffffffffffffffffffffffff8203611627576116266115bb565b5b600182019050919050565b6000604082019050611647600083018561144d565b6116546020830184610f6d565b9392505050565b7f4e487b7100000000000000000000000000000000000000000000000000000000600052602260045260246000fd5b600060028204905060018216806116a257607f821691505b6020821081036116b5576116b461165b565b5b50919050565b7f4f6e6c792061646d696e2063616e20706572666f726d2074686973206163746960008201527f6f6e000000000000000000000000000000000000000000000000000000000000602082015250565b6000611717602283610f87565b9150611722826116bb565b604082019050919050565b600060208201905081810360008301526117468161170a565b9050919050565b7f566f74657220697320616c726561647920726567697374657265640000000000600082015250565b6000611783601b83610f87565b915061178e8261174d565b602082019050919050565b600060208201905081810360008301526117b281611776565b9050919050565b60006117c482610f0a565b91506117cf83610f0a565b92508282039050818111156117e7576117e66115bb565b5b92915050565b7f4e487b7100000000000000000000000000000000000000000000000000000000600052603260045260246000fd5b60008190508160005260206000209050919050565b60006020601f8301049050919050565b600082821b905092915050565b60006008830261187e7fffffffffffffffffffffffffffffffffffffffffffffffffffffffffffffffff82611841565b6118888683611841565b95508019841693508086168417925050509392505050565b6000819050919050565b60006118c56118c06118bb84610f0a565b6118a0565b610f0a565b9050919050565b6000819050919050565b6118df836118aa565b6118f36118eb826118cc565b84845461184e565b825550505050565b600090565b6119086118fb565b6119138184846118d6565b505050565b5b818110156119375761192c600082611900565b600181019050611919565b5050565b601f82111561197c5761194d8161181c565b61195684611831565b81016020851015611965578190505b61197961197185611831565b830182611918565b50505b505050565b600082821c905092915050565b600061199f60001984600802611981565b1980831691505092915050565b60006119b8838361198e565b9150826002028217905092915050565b6119d182610f7c565b67ffffffffffffffff8111156119ea576119e9611287565b5b6119f4825461168a565b6119ff82828561193b565b600060209050601f831160018114611a325760008415611a20578287015190505b611a2a85826119ac565b865550611a92565b601f198416611a408661181c565b60005b82811015611a6857848901518255600182019150602085019450602081019050611a43565b86831015611a855784890151611a81601f89168261198e565b8355505b6001600288020188555050505b505050505050565b6000604082019050611aaf6000830185610f6d565b8181036020830152611ac18184610fd3565b90509392505050565b600081549050611ad98161168a565b9050919050565b818103611aee575050611bc6565b611af782611aca565b67ffffffffffffffff811115611b1057611b0f611287565b5b611b1a825461168a565b611b2582828561193b565b6000601f831160018114611b545760008415611b42578287015490505b611b4c85826119ac565b865550611bbf565b601f198416611b628761181c565b9650611b6d8661181c565b60005b82811015611b9557848901548255600182019150600185019450602081019050611b70565b86831015611bb25784890154611bae601f89168261198e565b8355505b6001600288020188555050505b5050505050505b565b6000611bd382610f0a565b915060008203611be657611be56115bb565b5b60018203905091905056fea2646970667358221220cfcef9bf6ff3ef41c8e8322109791534caf07305c2f6fab2a9656400924998c164736f6c63430008130033",
  "immutableReferences": {},
  "source": "pragma solidity ^0.8.0;\n\ncontract VotingSystem {\n    // State variables\n    address public admin;\n    uint256 public proposalsCount;\n\n    struct Voter {\n        bool isRegistered;\n        bool hasVoted;\n        uint256 voteIndex;\n    }\n\n    struct Proposal {\n        uint256 id;\n        string description;\n        uint256 voteCount;\n    }\n\n    mapping(address => Voter) public voters;\n    mapping(uint256 => Proposal) public proposals;\n\n    mapping(uint256 => address) public voterAddresses;\n    uint256 public voterCount;\n\n\n    // Events\n    event VoterRegistered(address voterAddress);\n    event ProposalCreated(uint256 proposalId, string description);\n    event VoteCasted(address voter, uint256 proposalId);\n    event ProposalDeleted(uint256 proposalId);\n\n    // Constructor\n    constructor() {\n        admin = msg.sender;\n    }\n\n    // Modifier\n    modifier onlyAdmin() {\n        require(msg.sender == admin, \"Only admin can perform this action\");\n        _;\n    }\n\n    // Functions\n    function registerVoter(address _voterAddress) public onlyAdmin {\n        require(!voters[_voterAddress].isRegistered, \"Voter is already registered\");\n\n        voters[_voterAddress] = Voter(true, false, 0);\n        voterAddresses[voterCount] = _voterAddress;\n        voterCount++;\n\n        emit VoterRegistered(_voterAddress);\n    }\n\n    function createProposal(string memory _description) public onlyAdmin {\n        proposalsCount++;\n        proposals[proposalsCount] = Proposal(proposalsCount, _description, 0);\n\n        emit ProposalCreated(proposalsCount, _description);\n    }\n\n    function deleteProposal(uint256 _proposalId) public onlyAdmin {\n        require(_proposalId > 0 && _proposalId <= proposalsCount, \"Invalid proposal ID\");\n\n    // Reset the voting power of voters who have voted for the deleted proposal\n    for (uint256 i = 0; i < voterCount; i++) {\n        address voterAddress = voterAddresses[i];\n        Voter storage voter = voters[voterAddress];\n        if (voter.hasVoted && voter.voteIndex == _proposalId) {\n            voter.hasVoted = false;\n            voter.voteIndex = 0;\n        }\n    }\n\n        Proposal storage lastProposal = proposals[proposalsCount];\n        proposals[_proposalId] = lastProposal;\n        delete proposals[proposalsCount];\n        proposalsCount--;\n\n        emit ProposalDeleted(_proposalId);\n    }\n\n    function vote(uint256 _proposalId) public {\n        require(_proposalId > 0 && _proposalId <= proposalsCount, \"Invalid proposal ID\");\n    require(voters[msg.sender].isRegistered, \"Voter is not registered\");\n    require(!voters[msg.sender].hasVoted || voters[msg.sender].voteIndex == _proposalId, \"Voter has already voted\");\n\n    if (!voters[msg.sender].hasVoted) {\n        voters[msg.sender].hasVoted = true;\n        voters[msg.sender].voteIndex = _proposalId;\n        proposals[_proposalId].voteCount++;\n        emit VoteCasted(msg.sender, _proposalId);\n    }\n    }\n\n    function getResults() public view returns (Proposal[] memory) {\n        Proposal[] memory results = new Proposal[](proposalsCount);\n\n        for (uint256 i = 1; i <= proposalsCount; i++) {\n            results[i - 1] = proposals[i];\n        }\n\n        return results;\n    }\n}\n",
  "sourcePath": "/Users/abiks/Desktop/evoting_dapp_blockchain/contracts/VotingSystem.sol",
  "compiler": {
    "name": "solc",
    "version": "0.8.19+commit.7dd6d404.Emscripten.clang"
  },
  "schemaVersion": "3.4.13",
  "updatedAt": "2023-05-06T05:40:35.049Z",
  "networkType": "ethereum",
  "devdoc": {
    "kind": "dev",
    "methods": {},
    "version": 1
  },
  "userdoc": {
    "kind": "user",
    "methods": {},
    "version": 1
  }
}